:020000040800F2
:10000000B812002045010008D51900089112000817
:10001000D1190008D1070008752A00080000000067
:100020000000000000000000000000008121000826
:10003000A1090008000000004D1E00086923000807
:100040005F0100085F0100085F0100085F01000810
:100050005F0100085F0100085F0100085F01000800
:100060005F0100085F010008610F00085F010008E0
:100070005F0100085F0100085F0100085F010008E0
:100080005F0100085F0100085F0100085F010008D0
:100090005F0100085F0100085F0100085F010008C0
:1000A0005F010008592400085F0100085F01000893
:1000B0005F0100085F0100085F0100085F010008A0
:1000C0005F0100085F0100085F0100085F01000890
:1000D0005F010008852600085F0100084527000829
:1000E0005F0100085F0100085F0100085F01000870
:1000F0005F0100085F0100085F0100085F01000860
:100100005F0100085F0100085F0100085F0100084F
:100110005F0100085F0100085F01000881240008FA
:100120005F0100085F0100085F0100085F0100082F
:10013000DFF80CD000F00CFB0048004791350008B8
:10014000B81200200648804706480047FEE7FEE751
:10015000FEE7FEE7FEE7FEE7FEE7FEE7FEE7FEE777
:100160006D2300083101000840EA01039B0703D01A
:1001700009E008C9121F08C0042AFAD203E011F8E6
:10018000013B00F8013B521EF9D27047D2B201E0A8
:1001900000F8012B491EFBD270470022F6E710B58C
:1001A00013460A4604461946FFF7F0FF204610BDE5
:1001B000421E12F8013F002BFBD111F8013B02F85F
:1001C000013B002BF9D1704730B505462A460B4656
:1001D00012F8010B13F8014B08B1A042F8D01CB182
:1001E000002802D06D1CF1E7284630BD421C10F8F3
:1001F000011B0029FBD1801A704710B5044600E0AE
:10020000401C0378002BFBD100E0401C521E04D39D
:1002100011F8013B0370002BF7D10021017020463B
:1002200010BD034611F8012B00F8012B002AF9D16B
:10023000184670472DE9FE4F804681EA0300C00F43
:100240000C46009021F0004123F00045B8EB02007D
:10025000A94105D24046214690461C460B4602461F
:1002600023F00040104347D0270DC7F30A00C3F323
:100270000A510290401A019040286BDAC3F3130030
:1002800040F4801B0098924620B10023D2EB030A71
:1002900063EB0B0B01985946C0F14002504600F049
:1002A000B0F906460D4650465946019A00F0C8F985
:1002B00010EB08006141002487EA115284EAE773D9
:1002C0001A4340D0009A62B3019A012A4FEA0752BA
:1002D00015DC001B61EB02014FF0004202EA0752FD
:1002E000CDE90042001C41F5801132462B4600F05A
:1002F000C8F903B0BDE8F08F40462146F9E7001B7E
:1003000061EB0201001C41F5801300185B412018CD
:10031000A2F5001747EB030140EAD570B6196D410D
:1003200011E06D084FEA360645EAC0754FEA0752FC
:10033000001B61EB0201001C41F5801149084FEAE6
:1003400030000019514132462B4603B0BDE8F04F52
:1003500000F088B90098012240000023D0EB02028F
:1003600063EBE073009821464FEAE074B8EB0000BD
:1003700061EB0401E9E783F000435BE781F00041B2
:1003800058E72DE9FE4F81EA030404F0004421F010
:10039000004100944FF0000B23F0004350EA0104A9
:1003A0005ED052EA03045BD0C3F30A54C1F30A558A
:1003B0002C44A4F2F3340194A0FB0254C1F31301C2
:1003C00041F48011C3F3130343F4801301FB02448F
:1003D00000FB034E840A970A44EA815447EA835794
:1003E000A4FB076802958D0A05FB07854FEA932C4D
:1003F00004FB0C542705029D4FEA065847EA1637BE
:10040000B5EB08056EEB070C870E920E47EA8117D5
:1004100042EA8312A7FB0201B6EB0B0164EB000476
:100420002B0D43EA0C335E1844EB1C50DA46514660
:10043000E7FB0201C5F313044FEA0B3343EA1453FD
:100440004FEA0432019C43EA0603A4F10C0402942F
:10045000009CCDE900B400F014F903B0BDE8F08FC2
:1004600000200146F9E72DE9F04D81EA030404F08C
:10047000004B21F0004514464FF0000A23F00041E4
:1004800050EA050220D054EA01021DD0C5F30A57F4
:100490000246C5F31303C1F31300C1F30A5640F437
:1004A000801543F48013A7EB0608101BD64608F20C
:1004B000FD3873EB050002D308F1010801E0921842
:1004C0005B41B8F1000F03DA00200146BDE8F08D72
:1004D00000204FF48011064684460EE0171B73EB94
:1004E000050705D3121B63EB050306434CEA010C19
:1004F00049084FEA300092185B4150EA0107EDD1FC
:1005000052EA030012D082EA040083EA050108439C
:1005100005D0101BAB4106D20122002306E00022C9
:100520004FF0004302E06FF0010253101AEB060097
:100530004CEB085110EB0A0041EB0B01BDE8F04D0C
:1005400000F090B830B5041E71F1000404DB4FF0E8
:100550000044404264EB0101141E73F1000405DB0A
:100560001C464FF00043524263EB0403994208BF1C
:10057000904230BD30B50B460146002020220124B8
:1005800009E021FA02F59D4205D303FA02F5491B61
:1005900004FA02F52844151EA2F10102F1DC30BD77
:1005A0002DE9F05F0546002092469B4688460646A8
:1005B000814640241BE0284641464746224600F03B
:1005C0002FF853465A46C01A914110D31146184687
:1005D000224600F016F82D1A67EB01084F46224616
:1005E0000120002100F00DF817EB00094E41201EFC
:1005F000A4F10104DFDC484631462A464346BDE803
:10060000F09F202A04DB203A00FA02F10020704714
:100610009140C2F1200320FA03F319439040704740
:10062000202A04DB203A21FA02F00021704721FA47
:1006300002F3D040C2F120029140084319467047AE
:10064000202A06DBCB17203A41FA02F043EAE07396
:1006500006E041FA02F3D040C2F120029140084383
:100660001946704710B5141E73F1000408DA401CD7
:1006700041F1000192185B411A4301D120F00100C1
:1006800010BD2DE9F04D92469B4611B1B1FA81F2B1
:1006900002E0B0FA80F220329046FFF7B2FF044643
:1006A0000F4640EA0A0041EA0B0153465A46084306
:1006B00013D0114653EA010019D0C8F14002504648
:1006C000FFF7AEFF05460E46504659464246FFF735
:1006D00098FF084305D0012004E020463946BDE8D4
:1006E000F08D0020054346EAE0762C4337430A9814
:1006F0006305E40AA0EB08000022FD0A44EA47541F
:100700000A3002D500200146E9E7010510196941C8
:10071000DDE9084500196941BDE8F04DA2E7C1F3E4
:100720000A52C1F3130140F2FF3341F480119A429F
:1007300002DA00200146704740F233439A42A2F2A7
:10074000334202DC5242FFF76BBFFFF75ABF000093
:10075000064C074D06E0E06840F0010394E807000E
:1007600098471034AC42F6D3FFF7E6FC90430008FC
:10077000B043000810B504462CB900200E4988711A
:100780000E49C8700FE0012C03D108200A494871B6
:1007900004E0022C02D10C200749487101200649CF
:1007A00088710649C87006480470034800F02EFCA2
:1007B000024801F011F910BDE4000020EC00002017
:1007C000F1000020032000E0401E0028FCD170470B
:1007D00000BFFEE710B507E002E0C82002F00AFE05
:1007E00001F0F0F90028F8D1024800680028F3D0A1
:1007F00010BD0000C000002010B50024154840685E
:1008000020F47040134948600846406840F40040B6
:10081000486004E0601CC4B2012002F011FE0E48E2
:10082000006808B1642CF5DB642C01DB012010BDED
:10083000002404E0601CC4B2012002F001FE06485E
:10084000006808B9642CF5DB642C01DB0120EEE7BD
:100850000020ECE7002001402C01244208B50121D2
:10086000080201F075FB4FF40060ADF800001020A5
:100870008DF8030003208DF802006946064800F059
:100880002FFC4FF40061044800F000FD00F068F810
:10089000FFF7B2FF08BD00000020014010B50024A2
:1008A00004E0601CC4B2012002F0CAFD0D480068DB
:1008B00008B1642CF5DB002404E0601CC4B2012004
:1008C00002F0BEFD0748006808B9642CF5DB28205B
:1008D00002F0B6FD0348006808B1012010BD0020F9
:1008E000FCE700002C01244270B50024002506E03E
:1008F0006006040EFFF7D2FF0443681CC5B2082D42
:10090000F6DB204670BD7CB505460E4600F028F8A3
:10091000FFF772FFF8B9002405E0FFF7E5FF0DF8D7
:100920000400601CC4B2052CF7DB9DF800009DF8A4
:10093000011008449DF8021008449DF80310084473
:100940009DF80410884208D19DF8000030709DF891
:100950000200287001E001207CBD0020FCE70000BF
:1009600010B50C48406820F470400A4948600846B9
:10097000406840F440504860002007490860142057
:1009800002F038FD01200549C1F8AC011E2002F03B
:1009900057FD10BD00200140AC012442000024425C
:1009A00070472DE9F04782460C4615461F46DDF894
:1009B00020903C444D44402C01D8802D01D9BDE805
:1009C000F0873E460BE0C84606E0424631465046B8
:1009D00002F026FF08F10108A845F6D3761CA642CE
:1009E000F1D300BFEBE710B50446207B012802D10C
:1009F000206802F04BFD002020606060A060207342
:100A000010BD70B504460E460025206898B9012037
:100A10002073304602F0CEFE20602068E0B1002056
:100A20006060A66003E00020216848556D1CA06846
:100A3000A842F8D810E00220207303E000202168CB
:100A400048556D1CA068A842F8D800206060A068D6
:100A5000B04201D20020206070BD00002DE9F047B7
:100A60008046894617461C464046FFF7BFFBC5B285
:100A70004846FFF7BBFBC6B238212046FFF7C1FF4F
:100A8000206810B90120BDE8F087102021680870A7
:100A90006068401C606005F10D00304421684870BA
:100AA0006068401C60600020216888700320216815
:100AB000C8706068801C60602168081D032221A145
:100AC000FFF79BFB6068C01C606001202168C87153
:100AD0006068401C60604020216808726068401CAB
:100AE0006060380A2168487221688F726068801CD3
:100AF000606000202168C87221680D736068801CE6
:100B00006060216801F10D002A464146FFF775FB40
:100B1000606828446060002105F10D0022681154CE
:100B2000401C226816546068801C606021680F3188
:100B3000481932464946FFF760FB60683044606000
:100B40000020A0E74544500010B50446022120468D
:100B5000FFF757FF206808B9012010BDC021626867
:100B6000501C60602068815400216268501C6060E5
:100B700020688154A28891B2206800F0E9F9002031
:100B8000EBE72DE9F84F81460D4617461E460A9CB5
:100B9000002000904846FFF729FB00F0FF08022ED6
:100BA00003D117B90120BDE8F88F022E08D13846CD
:100BB000FFF71CFB824651462046FFF722FF04E068
:100BC00005F118012046FFF71CFF206808B9022034
:100BD000E9E780216268501C606020688154B9F1A7
:100BE000000F40D0022E07D13846FFF7FFFA0C3035
:100BF000284400B2009004E005F10800404400B22F
:100C00000090A1888AB22068009901F035FF6168E0
:100C100008446060C0216268501C60602068815494
:100C200000216268501C6060206881546168481C23
:100C30006060206800F80180D4E9001288184246FC
:100C40004946FFF7DAFA60684044606055216268FF
:100C5000501C606020688154AA216268501C60604A
:100C60002068815427E0022E07D13846FFF7BEFAEC
:100C70000A30284400B2009002E0A81D00B20090A3
:100C8000A1888AB22068009901F0F6FE61680844E4
:100C9000606040216268501C60602068815455216A
:100CA0006268501C606020688154AA216268501CF0
:100CB0006060206881546168481C60602068465408
:100CC000022E3AD13846FFF791FA00F0FF0A4FF0B2
:100CD000000B00216268501C6060206881546168CC
:100CE000481C6060206800F801A00AE017F80B10AB
:100CF0006268501C6060206881540BF1010000F0B4
:100D0000FF0BD345F2DB290E6268501C606020683F
:100D10008154C5F307416268501C606020688154AB
:100D2000C5F307216268501C6060206881546268C6
:100D3000501C6060206885540BE0C5F30721626891
:100D4000501C6060206881546268501C606020689C
:100D50008554002027E7000010B5642401203249A3
:100D600008700103314800F08FFA502002F042FB76
:100D70004FF480512D4800F089FA00231A462CA127
:100D8000012001F0B3F80023102229A1012001F075
:100D9000ADF801F007FA22462AA12BA001F024FAAF
:100DA00000231A462AA1012001F0A0F801F0FAF967
:100DB000224624A128A001F017FA224621A12AA048
:100DC00001F012FA22461FA127A001F00DFA6420BB
:100DD00002F010FB4FF496721AA126A001F004FA5B
:100DE000002310222DA1012001F080F801F0DAF992
:100DF000224614A12BA001F0F7F9224611A133A03D
:100E000001F0F2F9224635A135A001F0EDF90023F9
:100E1000202237A1012001F069F801F0C3F9002078
:100E20000149087010BD00000400002000200140AE
:100E300020202020202020202020202020202020B2
:100E4000200000004F4B000041540D0A000000003C
:100E50004154206F6B00000041542B43574D4F44C9
:100E6000453D310D0A00000041542B5253540D0AE8
:100E70000000000041542B43574A41503D22434D4E
:100E800043432D504A6773222C223133363938348C
:100E90003533323936220D0A000000006C696E6B62
:100EA000206F6B0041542B43495053544152543DE1
:100EB00022544350222C223138332E3233302E34F8
:100EC000302E3339222C3837360D0A0041542B434B
:100ED00049504D4F44453D310D0A00003E00000091
:100EE00041542B43495053454E440D0A0000000025
:100EF000696E69745F6F6B0008B50121042001F011
:100F000027F810208DF803004002ADF80000032000
:100F10008DF8020069460D4800F0E2F84FF40051E8
:100F20000A4800F0B3F910208DF803000002ADF874
:100F3000000003208DF802006946044800F0D0F854
:100F40004FF48051014800F0A1F908BD0020014094
:100F500070B504460D462946204601F06FFD70BD70
:100F600010B5102000F03EF870B318480078012842
:100F70000AD117480078012802D1002015490880BD
:100F800002201249087018E010480078022814D195
:100F90000F480078012806D10E48008840F4004030
:100FA0000C49088006E00A480078022802D1012096
:100FB0000749087001200549087004480078FFF7C8
:100FC000D9FB102000F008F810BD0000F10000204F
:100FD000F0000020B00000200149086070470000C8
:100FE00014040140014600200022074B1B6803EA5D
:100FF0000102054B14331B680B4013B10AB10120E9
:1010000000E0002070470000000401400021234957
:101010008279002A3AD00A46126803689A430B463E
:101020001A600A1D126803689A430B1D1A60027940
:1010300011440A6803681A430A60184A08321268A1
:1010400003689A43154B08331A601A1D1268036827
:101050009A43124B0C331A604279102A0ED11A1F90
:10106000126803681A430D4B08331A601A1D126880
:1010700003681A43094B0C331A600DE007494279A3
:1010800011440A6803681A430A6005E002791144B2
:101090000A6803689A430A60704700000004014030
:1010A00030B500228B071C0F0F2303FA04F20B4B01
:1010B0008C1053F824309343084C8D1044F825309D
:1010C00023468C1053F824308C07240F00FA04F4C4
:1010D0002343024C8D1044F8253030BD08000140F8
:1010E0002DE9F041024600250026002000230024BF
:1010F000002791F803C00CF00F0591F803C00CF025
:10110000100CBCF1000F03D091F802C04CEA0505A9
:1011100091F800C0BCF1000F31D0146800202BE022
:101120004FF0010C0CFA00F3B1F800C00CEA030612
:101130009E4220D183004FF00F0C0CFA03F7BC4302
:1011400005FA03FC4CEA040491F803C0BCF1280F33
:1011500006D14FF0010C0CFA00FCC2F814C00AE0F2
:1011600091F803C0BCF1480F05D14FF0010C0CFA07
:1011700000FCC2F810C0401C0828D1D31460B1F89C
:1011800000C0BCF1FF0F34DD546800202EE000F1F8
:10119000080C4FF0010808FA0CF3B1F800C00CEA93
:1011A00003069E4221D183004FF00F0C0CFA03F787
:1011B000BC4305FA03FC4CEA040491F803C0BCF1FB
:1011C000280F05D100F1080C08FA0CF8C2F81480B9
:1011D00091F803C0BCF1480F07D100F1080C4FF0A3
:1011E000010808FA0CF8C2F81080401C0828CED379
:1011F0005460BDE8F0810000F0B50A4600230024E9
:101200000021002500F00046B6F1004F02D11D4E2E
:10121000F16901E01B4E7168C0F3034583B200F42D
:101220004016B6F5401F08D121F07061154E766862
:1012300026F07066134F7E6012E000F48016B6F55B
:10124000801F06D1032606FA05F4A14341F0706120
:1012500006E0460D360103FA06F6B14341F070612F
:1012600022B1460D360103FA06F6314300F000467E
:10127000B6F1004F02D1034EF16101E0014E716001
:10128000F0BD0000000001404161704701617047FE
:1012900000BFFEE700B501200A490860FFF792FA97
:1012A000022008490860FFF78DFA02200549091D50
:1012B0000860FFF787FA01200249091D0860FFF75F
:1012C00081FA00BD100C014000B501200A490860F8
:1012D000FFF778FA022008490860FFF773FA012047
:1012E0000549091F0860FFF76DFA02200249091F2E
:1012F0000860FFF767FA00BD140C014000B5024614
:1013000002F0800018B102206649086003E0022064
:101310006449091D0860FFF755FA0120614908601A
:10132000FFF750FA01205F49091D0860FFF74AFAEC
:1013300002F0400018B102205A49086003E0022080
:101340005849091D0860FFF73DFA0120554908601A
:10135000FFF738FA01205349091D0860FFF732FAF8
:1013600002F0200018B102204E49086003E002207C
:101370004C49091D0860FFF725FA0120494908601A
:10138000FFF720FA01204749091D0860FFF71AFA04
:1013900002F0100018B102204249086003E0022068
:1013A0004049091D0860FFF70DFA01203D4908601A
:1013B000FFF708FA01203B49091D0860FFF702FA10
:1013C00002F0080018B102203649086003E002204C
:1013D0003449091D0860FFF7F5F90120314908601B
:1013E000FFF7F0F901202F49091D0860FFF7EAF91E
:1013F00002F0040018B102202A49086003E002202C
:101400002849091D0860FFF7DDF90120254908601A
:10141000FFF7D8F901202349091D0860FFF7D2F929
:1014200002F0020018B102201E49086003E0022009
:101430001C49091D0860FFF7C5F90120194908601A
:10144000FFF7C0F901201749091D0860FFF7BAF935
:1014500002F0010018B102201249086003E00220E6
:101460001049091D0860FFF7ADF901200D4908601A
:10147000FFF7A8F901200B49091D0860FFF7A2F941
:10148000022008490860FFF79DF90120054908601E
:10149000FFF798F901200349091D0860FFF792F949
:1014A00000BD0000100C014008B50121082000F02B
:1014B0004FFD40F22320ADF8000010208DF803000E
:1014C00003208DF8020069461548FFF709FE40F237
:1014D00023211348FFF7DAFE3620ADF80000102074
:1014E0008DF8030003208DF8020069460D48FFF7D0
:1014F000F7FD36210B48FFF7C9FE2020ADF80000AC
:1015000010208DF8030003208DF80200694605487D
:10151000FFF7E6FD20210448FFF7B8FE08BD0000F4
:10152000000C0140000801400018014070B504465D
:101530000D4602E0642001F05DFF00F00BF800288A
:10154000F8D103480480857000F086F870BD000073
:10155000D800002038B5002401250121042000F026
:10156000F7FC0121084600F0F3FC01213248FFF7A7
:1015700043FEE803ADF8000010208DF803000320BF
:101580008DF8020069462D48FFF7AAFD1020ADF83E
:10159000000028208DF8030003208DF80200694622
:1015A0002648FFF79DFD04210020FFF779FD10205C
:1015B00023490860002008710820487100208871C4
:1015C0000846FFF723FD0A201E49087002204870D4
:1015D000032088700020C870084600F0FDF9002044
:1015E000194908601949C1F8100102E0642001F0AE
:1015F00001FF1548AC3800680028F7D14FF4E130FE
:1016000002F0B4F9012010490860282001F0F2FE30
:10161000052407E046220EA10EA001F079FF08B9CB
:10162000002504E02000A4F10101CCB2F2D100BFFA
:1016300004B90125284638BD0002300000080140E9
:10164000E4000020EC000020BC0121420000214207
:101650004F4B00004154000030B585B000250021FB
:10166000072002F003FA012002F0E4F900BF52481B
:1016700000680028FBD101204F49AC3108602820C8
:1016800001F0B8FE00204D4908704D480088040A5A
:101690004B4805782B4622464AA1684601F004FAD9
:1016A00002E00A2001F0A6FE64224BA1684601F088
:1016B0002FFF0028F5D142480379827847A1684678
:1016C00001F0F2F902E00A2001F094FE322242A178
:1016D000684601F01DFF0028F5D13948C27843A1C2
:1016E000684601F0E1F902E00A2001F083FE3222AF
:1016F00039A1684601F00CFF0028F5D13048827905
:101700003EA1684601F0D0F902E00A2001F072FE25
:10171000322231A1684601F0FBFE0028F5D12848AD
:10172000C2793AA1684601F0BFF902E00A2001F04F
:1017300061FE322228A1684601F0EAFE0028F5D1B8
:101740001F48427934A1684601F0AEF902E00A2050
:1017500001F050FE322220A1684601F0D9FE002897
:10176000F5D10023072230A1684601F09DF902E07F
:101770000A2001F03FFE322217A1684601F0C8FEA0
:101780000028F5D10C49AC310860282001F032FE68
:1017900000BF094800680028FBD1274908800120C4
:1017A000064908700021072002F060F90120FEF7C9
:1017B000E1FF05B030BD000010012142F000002023
:1017C000D800002041542B414444523D253032780A
:1017D0002C253032780000004F4B000041542B572D
:1017E0004C524154453D25642C25640041542B54F2
:1017F000504F5745523D25640000000041542B4393
:10180000574D4F44453D25640000000041542B5482
:101810004D4F44453D25640041542B574C54494D90
:10182000453D25640000000041542B554152543D74
:1018300025642C2564000000B000002070B500264F
:1018400000241E48008800F40040002834D01B48C3
:101850000088C0F30E040020194908551749088074
:1018600018A000F065F81AA11548FEF7ADFC054672
:10187000687800EB80004006000E16490870A878D2
:1018800000EB80004006000E487013A10C48FEF7E4
:101890009BFC10B100201149086011A10848FEF717
:1018A00093FC10B101200D490860322001F0A2FD27
:1018B00021460348FEF771FC70BD0000B000002017
:1018C000700500204F4B2C526563656976650000FA
:1018D00046000000840000206F6E000094812142C9
:1018E0006F66660010B50D48006880B90C488079B5
:1018F00002280CD002200B4908700BA000F018F849
:10190000C82001F077FD4FF4967001F073FD0120BF
:1019100004490870FFF792FF10BD0000100121423A
:10192000D8000020F000002031373034333100007F
:10193000F0B589B00546202101A8FEF72EFC002451
:101940001D48C07920B929461CA001F091FF31E063
:101950001948C07901282DD11A48008886B21A4842
:101960000778320A2046611C8CB201A90A5420462D
:10197000611C8CB201A90E5401A80755002405E092
:10198000295DE01C01AA1154601C84B2042CF7D319
:1019900000240DE000BF40210C4800F07DFF00282E
:1019A000F9D001A8015D094801F043F8601C84B238
:1019B000072CEFD309B0F0BDD800002025730D0A25
:1019C00000000000F8000020FC000020004800405B
:1019D00000BFFEE77047000070B5002100230F2212
:1019E000C47804B3154C246804F4E064C4F5E064DE
:1019F000210AC1F10403CA40447804FA03F184784F
:101A00001440214309010E4C0678A155047804F0D6
:101A10001F050124AC4005786D11AD0005F1E025EE
:101A2000C5F8004109E0047804F01F050124AC402A
:101A3000044D0678761145F8264070BD0CED00E0A7
:101A400000E400E080E100E070B50646002415E007
:101A500004F1B001C8B200F094F8102000F091F841
:101A6000002000F08EF8002504E0304600F099F8E0
:101A7000681CC5B2802DF8DB601CC4B2082CE7DB03
:101A800070BD000008B510208DF8030003208DF80C
:101A90000200ADF800000848806940F008000649DF
:101AA000886169460548FFF71BFBBDF80010034835
:101AB000FFF7ECFB08BD000000100240000C0140E5
:101AC00010B5FFF7DFFF052001F094FC8D2000F03A
:101AD00058F8102000F055F8002000F052F81020BF
:101AE00000F04FF8402000F04CF8812000F049F859
:101AF0007F2000F046F8A12000F043F8C82000F055
:101B000040F8A62000F03DF8A82000F03AF83F2069
:101B100000F037F8D32000F034F8002000F031F85E
:101B2000D52000F02EF8F02000F02BF8D92000F09E
:101B300028F8782000F025F8DA2000F022F81220AA
:101B400000F01FF8DB2000F01CF8202000F019F84E
:101B5000202000F016F8022000F013F8A42000F076
:101B600010F8AF2000F00DF80020FFF76DFF8D207A
:101B700000F007F8142000F004F8052001F03AFC0A
:101B800010BD00B50346FFF785FB7820FFF7B6FBD5
:101B90000020FFF7B3FB1846FFF7B0FBFFF794FBFD
:101BA00000BD00B50346FFF775FB7820FFF7A6FBE5
:101BB0004020FFF7A3FB1846FFF7A0FBFFF784FBCD
:101BC00000BD00001FB5002000900190029003901E
:101BD00001246B4622020CA113A0FEF73FFF60B95F
:101BE000019A91B20098FFF7B3F94FF4FA7001F03F
:101BF00001FC6846FEF7F7FE002414B1012004B092
:101C000010BD0020FBE700004937386E46316B53AA
:101C10003169337A564F4250733843617131464BC4
:101C20004E45303D0000000035343033333236321B
:101C3000350000007FB504460D460020009001905D
:101C40000290039017A0008820800020009001904F
:101C50000290039014480078482807D054280BD1EC
:101C60002A4612A1684600F01FFF06E02A4614A18A
:101C7000684600F019FF00E000BF00BF694620463B
:101C8000FEF796FA12A12046FEF792FA0020009085
:101C90000190029003902046FEF7A8FAC0B204B06B
:101CA00070BD00007B000000810000202254656DA3
:101CB0007065726174757265223A256400000000D7
:101CC0002248756D6964697479223A2564000000C0
:101CD0007D00000030B59FB005460C467C2168466B
:101CE000FEF75BFA10A12846FEF79BFA7C216846B6
:101CF000FEF753FA0D4800784D2805D122460CA175
:101D0000684600F0D1FE00E000BF00BF69462846EB
:101D1000FEF74EFA7C216846FEF73FFA2846FEF7AA
:101D200065FAC0B21FB030BD234000008100002022
:101D300072656365697665722325730070B5A6B018
:101D40000646002022902390249025900024002510
:101D5000802102A8FEF721FAC8211548FEF71DFAD6
:101D6000002014490860314602A8FFF763FF0446CB
:101D7000E4B122A803230022214600900EA0FEF722
:101D800000FF98B908E002A8415D239A501C2390F7
:101D900022988154681C05B2A542F4DB239A91B2C3
:101DA0002298FFF7D5F822A8FEF71DFE26B070BDD9
:101DB000D80B0020C40000203534303333323632A3
:101DC0003500000070B5A4B0064600202090219098
:101DD0002290239000240025782102A8FEF7DDF947
:101DE000C8211548FEF7D9F900201449086031468A
:101DF00002A8FFF76FFF0446E4B120A805230022E4
:101E0000214600900EA0FEF7BCFE98B908E002A89B
:101E1000415D219A501C219020988154681C05B284
:101E2000A542F4DB219A91B22098FFF791F820A8FF
:101E3000FEF7D9FD24B070BDD80B0020C4000020EF
:101E4000353430333332363235000000704700000D
:101E50002DE9F04381460E4617469846202E01DBB9
:101E60007F2E00DD7F26002439E0002533E01E4868
:101E700000EB0610405D204100F0010030B108EB9E
:101E800005023919484601F0CBFC06E008EB0502D3
:101E9000391989F0010001F0C3FC134800EB061169
:101EA00005F10800085C204100F0010040B108EB9A
:101EB0000502381900F10801484601F0B1FC08E0BC
:101EC00008EB05023B1903F1080189F0010001F05C
:101ED000A7FC681CC5B2082DC9DB601CC4B2082C65
:101EE000C3DBBDE8F08300008E3B0008F0B506467A
:101EF0000C4617461D4607E014F8011B2B463A46D0
:101F00003046FFF7A5FF083520780028F4D1F0BD52
:101F100029B1064AD2690243044BDA6104E0034A5C
:101F2000D2698243014BDA61704700000010024021
:101F300029B1064A12690243044B1A6104E0034ABC
:101F400012698243014B1A61704700000010024081
:101F500029B1064A92690243044B9A6104E0034A9C
:101F600092698243014B9A61704700000010024061
:101F700029B1064AD2680243044BDA6004E0034AFE
:101F8000D2688243014BDA607047000000100240C3
:101F900030B500210022002400232D4D6D6805F08E
:101FA0000C0121B1042905D0082923D105E0294DD0
:101FB000056022E0274D05601FE0254D6D6805F4A2
:101FC0007012234D6D6805F48034022505EB9242B2
:101FD0001CB9214D554305600BE01D4D6D6805F49E
:101FE00000351DB11C4D5543056002E0194D5543A8
:101FF000056002E0174D056000BF00BF144D6D681D
:1020000005F0F0010909154D6B5C0568DD40456080
:102010000F4D6D6805F4E061090A104D6B5C456871
:10202000DD4085600A4D6D6805F46051C90A0B4DAD
:102030006B5C4568DD40C560054D6D6805F4404149
:10204000890B074D6B5CC568B5FBF3F5056130BDC9
:102050000010024000127A0000093D009C000020A0
:10206000AC00002010B515A11548FEF7ADF848B931
:1020700014A11348FEF7A8F820B913A11048FEF7E1
:10208000A3F850B1C8210E48FEF787F80120104987
:10209000086000200F4908600EE00E480068401CF0
:1020A0000C49086008460068962805D100200860A1
:1020B000C8210348FEF771F810BD00004F4B000027
:1020C000D80B00203E0000007265616479000000BA
:1020D000C8000020C400002010B5244800689628DD
:1020E00006D1002021490860C8212148FEF755F893
:1020F00020480078002811DD1D481C490968405C13
:102100001D491E4A126888541C480068401C1B491F
:10211000086018480078401E164908701348006887
:1021200003281DDD11480068801E1149085CB8B9FC
:102130000E480068401E085C90B908460B490968C3
:10214000405C00280CDD14210B48FEF726F80848F7
:1021500006490968405C0749087000200749086083
:1021600002480068401C0149086010BDC4000020FE
:10217000D80B0020BC000020A00C0020D0000020C4
:102180007047000038B50446054804600020034647
:10219000802240210090FEF704FCFFF791FC38BD3F
:1021A000D400002030B5002419E004F1B001C8B219
:1021B000FFF7E7FC1020FFF7E4FC0020FFF7E1FC4D
:1021C000002508E00749096801EBC411485DFFF7E5
:1021D000E8FC681CC5B2802DF4DB601CC4B2082C7E
:1021E000E3DB30BDD40000202DE9F04105460F4669
:1021F000144622E0C8211348FDF7CFFF0020124902
:1022000008602846FDF7F2FF06463146284600F0F2
:1022100015FCA0B201F0EEF80C480068C0430C4970
:10222000C1F8A4010B480068012803D10020094926
:10223000086003E0C82001F0DDF8DBE700BFBDE87F
:10224000F0810000D80B0020C4000020A4812142AE
:1022500000802142C800002010B500F001F810BD38
:102260000CB50020019000903348006840F48030A5
:102270003149086000BF3048006800F40030009029
:102280000198401C0190009818B90198B0F5A06F12
:10229000F1D12948006800F4003010B1012000900D
:1022A00001E0002000900098012843D123480068F5
:1022B00040F01000214908600846006820F0030043
:1022C00008600846006840F0020008601A4840684C
:1022D000194948600846406848600846406840F42C
:1022E000806048600846406820F47C1048600846DA
:1022F000406840F4E81048600846006840F080708C
:10230000086000BF0C48006800F000700028F9D099
:102310000948406820F003000749486008464068C3
:1023200040F00200486000BF0348406800F00C0025
:102330000828F9D10CBD0000001002400020024026
:10234000042808D14FF0E021096941F004014FF061
:10235000E022116107E04FF0E021096921F004015A
:102360004FF0E022116170477047000010B513482C
:10237000006840F0010011490860084640681049B3
:1023800008400E494860084600680E4908400B495D
:1023900008600846006820F480200860084640680D
:1023A00020F4FE0048604FF41F008860FFF754FFE0
:1023B0004FF000600449086010BD000000100240AA
:1023C0000000FFF8FFFFF6FE08ED00E008B500F0A2
:1023D000EFFF4FF4E13001F073FAFFF765F81548AD
:1023E000FFF7D0FE00231A4613A10120FFF77EFD60
:1023F00017210020FFF79AF80023102212A10120D4
:10240000FFF774FDFFF7CEFEFEF728FA64203023B5
:102410000022114600901046FEF7C3FAFFF7C2FEF5
:10242000FEF76AFDFEF798FC482141F2883000F083
:10243000F1F808BD0801002068656C6C6F205E2D06
:102440005E202A2A000000006C6F726120696E69AC
:1024500074206F6B0000000010B50121064800F0E9
:102460006BF840B10121044800F057F803480068B8
:10247000401C0249086010BD002C014000000020F3
:1024800010B50121094800F057F868B1012107484B
:1024900000F043F80648008840F4004004490880F2
:1024A0000021024800F03CF810BD0000001400407C
:1024B000B00000207FB505460C4601212020FFF723
:1024C00027FDADF80450ADF800400020ADF806003F
:1024D000ADF8020069460E4800F04AF801221146A4
:1024E0000B4800F03AF837208DF80C0000208DF8EA
:1024F0000D0002208DF80E0001208DF80F0003A8BA
:10250000FFF76AFA0121024800F00AF87FBD0000D7
:1025100000140040CA4302827047CA4302827047D7
:1025200021B1028842F00102028004E002884FF6E5
:10253000FE731A400280704730B502460020002327
:102540000024158A05EA0103958905EA010413B1FF
:102550000CB1012000E0002030BD1AB183890B438B
:10256000838102E083898B43838170478184704734
:10257000002202881D4B98420ED01D4B98420BD072
:10258000B0F1804F08D01B4B984205D01A4B9842AF
:1025900002D01A4B984204D14FF68F731A404B88E1
:1025A0001A43174B984207D0164B984204D04FF667
:1025B000FF431A40CB881A4302808B8883850B889F
:1025C00003850A4B98420BD0094B984208D00E4B1A
:1025D000984205D00D4B984202D00D4B984201D144
:1025E0000B7A03860123838270470000002C014090
:1025F000003401400004004000080040000C00408E
:102600000010004000140040004001400044014020
:10261000004801407FB505460C460121C802FFF77E
:1026200097FC681E80B2ADF80800601E80B2ADF85D
:1026300004000020ADF80600ADF80A008DF80C008B
:1026400001A90F48FFF794FF19208DF80000012021
:102650008DF8030000208DF801008DF80200684617
:10266000FFF7BAF901210648FFF754FF012211468E
:102670000348FFF772FF01210148FFF751FF7FBDBB
:10268000002C014010B540F22551284800F011F906
:10269000D8B1264800F0C8F9C4B2254825490968D0
:1026A000445425480078012802D1FFF7DBFC07E0FD
:1026B0002148007820B9FFF70FFD01201F4908804D
:1026C00040F22551194800F07EF81A480068C01EF3
:1026D0001749085C202812D116480068801E085C43
:1026E00002280CD113480068401E085C38B908461F
:1026F00010490968405C10B90120114908600D4873
:102700000068801E0A49085C64280ED109480068E8
:10271000401E085C012808D1084606490968405C4B
:10272000602802D100200649086010BD0038014031
:10273000D80B0020C400002004000020CC000020A2
:10274000C000002070B5302540F22551154800F03A
:10275000B0F8F8B1134800F067F9C4B21248008825
:1027600000F40040B0B910480088B0F5806F12DA6C
:1027700000210E48FFF7FAFE0B48008818B9012126
:102780000A48FFF7CDFE08490888411C064A118017
:1027900007490C5405E00448008840F40040024911
:1027A000088070BD00480040B000002000140040C8
:1027B0007005002001F40072B2F5007F00D100BF67
:1027C000CA430280704710B50022002340F66A1405
:1027D000A14200D100BF0A1201249440A3B2DC43FD
:1027E000048010BD21B1828942F40052828104E04C
:1027F00082894DF6FF731A408281704710B50446F6
:102800002048844209D101218803FFF7B1FB002150
:102810004FF48040FFF7ACFB32E01B48844209D103
:1028200001214804FFF784FB00214FF40030FFF73B
:102830007FFB25E01548844209D101218804FFF778
:1028400077FB00214FF48020FFF772FB18E010485F
:10285000844209D10121C804FFF76AFB00214FF42B
:102860000020FFF765FB0BE00A48844208D10121F4
:102870000805FFF75DFB00214FF48010FFF758FBC0
:1028800010BD0000003801400044004000480040F6
:10289000004C00400050004002460020B1F5007F8F
:1028A00000D100BF13880B400BB1012000E00020D5
:1028B000704770B50246002400230025002040F632
:1028C0006A16B14200D100BFC1F3421501F01F03E7
:1028D000012606FA03F3012D02D19689334006E062
:1028E000022D02D1168A334001E0968A33400C1241
:1028F000012606FA04F41688344013B10CB1012005
:1029000000E0002070BDF0B503460024002600253D
:10291000002040F66A17B94200D100BF1846C1F343
:10292000421401F01F06012707FA06F5012C01D118
:102930000C3004E0022C01D1103000E014301AB148
:1029400007682F43076002E00768AF430760F0BDE8
:102950002DE9F04786B005460E460024A24600BF8A
:10296000A1460027B08900B100BF2F462C8A4CF643
:10297000FF700440F08804432C82AC894EF6F310BB
:102980000440B08831890843718908430443AC810D
:10299000AC8A4FF6FF400440B0890443AC8201A8E2
:1029A000FFF7F6FA1F48874202D1DDF810A001E0D8
:1029B000DDF80CA0A88900F4004040B10AEBCA0081
:1029C00000EB0A1031684900B0FBF1F807E00AEBB0
:1029D000CA0000EB0A1031688900B0FBF1F86420EE
:1029E000B8FBF0F004012009642101FB1089A889DB
:1029F00000F4004040B1322000EBC900B0FBF1F020
:102A000000F00700044308E0322000EB09106421C5
:102A1000B0FBF1F000F00F0004432C8106B0BDE8DC
:102A2000F08700000038014001468888C0F30800A4
:102A30007047C1F3080282807047000070B50446F9
:102A40000D4640210A48FFF7B5FE00260CE021782C
:102A50000748FFF7EEFF00BF40210548FFF71CFFC6
:102A60000128F9D1641C761CAE42F0DB70BD000079
:102A70000038014000BFFEE770B503460024002582
:102A800000BF01F07F05C90909B145F08005104676
:102A9000561CB2B21D54641C09B1052CF1DB501E4A
:102AA00080B2024670BD00000FB4084B10B504A9F7
:102AB00002AA039800F0E0F8044602A9002000F002
:102AC00072FC204610BC5DF814FB0000A733000820
:102AD00037B514460846064B6A46214600F0CCF846
:102AE00004466946002000F05EFC20463EBD000022
:102AF000A733000802E008C8121F08C1002AFAD153
:102B000070477047002001E001C1121F002AFBD16D
:102B1000704700002DE9FF5FDDE90220010DDDF8BF
:102B200038B0024318D044F61050A1F2FF314143AF
:102B30000D140F98012820D0A5EB0B00401C5FEA74
:102B4000000A4FF00004474EDFF81C91A0465046A3
:102B500016D5CAF1000728E00F98012443A20128E6
:102B600008D0002100980F9BC0E90021C0E9024372
:102B7000BDE8FF9F6FEA0B01F4E7CBF10000DEE751
:102B8000074612E0F80707D022463346404649463A
:102B9000FDF7F7FB80468946224633461046194624
:102BA000FDF7EFFB04460E467F10002FEAD1DDE96A
:102BB0000201BAF1000F42464B4602DAFDF7E1FB93
:102BC00001E0FDF750FC04460E460022284BFDF7BD
:102BD000B9FC03D84FF0FF30014607E00022254B37
:102BE00020463146FDF726FBFDF799FD102409E04C
:102BF000002C0ADB0A220023FDF7D2FC019B3032B5
:102C00001A55641E50EA0102F2D1641C019AC4F103
:102C1000110314440F9A012A03D0012208430DD155
:102C20000AE0084304D000204FF0110B0F9080E71A
:102C3000A3EB0B056D1E0DE05B4504DD4FF00002BC
:102C400005F1010504E003DA4FF00002A5F10105EA
:102C5000002AECD000980F99C0E90231C0E9004584
:102C600086E70000000024400000F03F3000000034
:102C70000000F0430000E03F2DE9FF4F95B09B4678
:102C80008946064600250FE2252877D100242746ED
:102C9000F84A0121059400E0044316F8013F203B67
:102CA00001FA03F01042F7D130782A2811D06FF0E2
:102CB0002F033078A0F13002092A16D8059A44F083
:102CC000020402EB820203EB42021044761C0590E0
:102CD000EFE759F8042B0592002A03DA504244F436
:102CE0000054059044F00204761C30782E2816D14A
:102CF00016F8010F44F004042A280DD06FF02F02BB
:102D00003078A0F13003092B09D807EB870302EBD9
:102D10004303C718761CF3E759F8047B761C307818
:102D20006C280FD006DC4C2817D068280DD06A28F4
:102D300014D104E0742810D07A280FD10DE044F4A7
:102D400000140AE044F4801401E044F44014727862
:102D5000824202D104F58014761C761C30786628F5
:102D60000BD013DC582877D009DC002875D0452813
:102D7000F6D04628F4D047281AD19DE118E0632800
:102D800035D0642879D0652812D195E1702873D0A8
:102D900008DC6728F1D069286FD06E280DD06F2825
:102DA00006D1B5E073282CD0752875D0782874D05A
:102DB0005A46179990476D1C75E1C4F302500228DA
:102DC00009D003280DD0D9F8001004280DD00D60CB
:102DD00009F1040967E1D9F80010EA17C1E90052C6
:102DE000F6E7D9F800100D80F2E70D70F0E719F85A
:102DF000041B8DF8001000208DF80100EA46012028
:102E000003E059F804AB4FF0FF3061074FF00001C9
:102E100002D40DE008F101018846B9420FDA80457D
:102E2000F8DB1AF808100029F4D108E008F10101D4
:102E300088468142FADB1AF808100029F6D1059875
:102E40005B46A0EB080721463846179A00F094FA33
:102E5000284400EB080507E04DE029E10DE01AF8F1
:102E6000010B5A4617999047B8F10108F7D25B4613
:102E700021463846179A13E142E00A220092C4F331
:102E800002524FF0000A022A08D059F804CB032A54
:102E90004FEAEC710AD00DE029E02AE009F10701C0
:102EA00021F00702F2E802C1914609E00FFA8CFC1A
:102EB0004FEAEC71042A03D14FFA8CFC4FEAEC7113
:102EC000002907DA0A460021DCF1000C61EB02015F
:102ED0002D2202E0220504D52B228DF804200122A8
:102EE00003E0E20701D02022F7E7904659E00A21EB
:102EF00002E010220DE010214FF0000A00910BE0DB
:102F000010224FF0000A44F004040827009203E066
:102F100008224FF0000A0092C4F30252022A05D0A0
:102F200059F804CB0021032A08D009E009F1070170
:102F300021F00702F2E802C1914605E01FFA8CFC7D
:102F4000042A01D10CF0FF0C4FF00008220728D50D
:102F5000702806D0009B83F0100353EA0A0305D0C3
:102F60000EE040228DF80420012208E05CEA010214
:102F700006D030228DF804208DF8050002229046FC
:102F8000009B83F0080353EA0A030AD15CEA0102BA
:102F900001D1620705D530228DF804204FF00108D9
:102FA0007F1E582804D034A003900EA802900DE094
:102FB00036A0F9E753466046009AFDF7F1FA8446D9
:102FC0000398825C0298401E029002705CEA010045
:102FD000F0D1029806A9081A00F1200A600702D56C
:102FE00024F4803400E00127574502DDA7EB0A00F6
:102FF00000E0002000EB0A01009005984144401ACF
:103000000590E00306D45B462146179A059800F028
:10301000B3F90544002706E001A85A46C05D179998
:1030200090476D1C7F1C4745F6DBE0030CD55B46E3
:103030002146179A059800F09FF9054404E03020D6
:103040005A46179990476D1C0099481E0090002918
:10305000F5DC08E0029802995A460078491C029172
:10306000179990476D1CBAF10001AAF1010AF1DC31
:1030700065E100000928010030313233343536373C
:1030800038396162636465660000000030313233B4
:103090003435363738394142434445460000000054
:1030A00000F058F90544761C307800287FF4ECAD28
:1030B00019B02846BDE8F08F620700D4062709F151
:1030C000070222F0070CFCE80223E14603F0004867
:1030D0005FEA080C02D00FF2702C0DE05FEA045C8E
:1030E00002D50FF2682C07E05FEAC47C02D00FF231
:1030F000602C01E0AFF2700C4FF0FF3823F000437A
:10310000CDF850C065280CD006DC452809D04628EB
:103110001DD047283DD13DE0662818D067287ED1D4
:1031200038E00021112F01DB112000E0781CCDE9EF
:10313000000106A90EA8FFF7EDFCDDE90F010E9ACC
:1031400003910021009207F1010A04914DE04FF034
:1031500000400097CDE9011006A90EA8FFF7DAFCA0
:10316000DDE90F0203920E9B11990022DDF80CA0FD
:103170000093049211B9791C00EB010AB7EB0A0025
:1031800004D4C0F1FF3007F1010A0490AAEB070054
:10319000019044E0012F00DA01270021112F01DD09
:1031A000112000E03846CDE9000106A90EA8FFF77E
:1031B000B1FCDDE90F010E9A039100210491009208
:1031C000BA4621070CD40399514500DA8A46BAF170
:1031D000010F05DD009AAAF10101515C302908D0E8
:1031E000B84202DA10F1040F06DA0121CDE901102C
:1031F00015E0AAF10101E9E7002805DC0499014482
:103200000491AAEB000102E0411C514500DD8A4611
:103210000499401A401C01904FF000400290200792
:1032200004D40198504501DBCDF8048000208DF8CE
:103230004F0002980DF14F07B0F1004F25D02B2021
:103240000E9002984FF0020800280CDA40420290DB
:103250002D200E9007E00A210298FDF78BF93031FE
:10326000029007F8011DB8F10001A8F10108F2DC95
:1032700002980028EFD1791E0E980870307800F07F
:10328000200040F0450007F8020D12A8C01B00F115
:1032900007081498007800B1012000EB0A0101989A
:1032A00001EBE07105984144401A401E0590E0038F
:1032B00006D45B462146179A059800F05DF8054450
:1032C0001498007818B15A46179990476D1CE0037E
:1032D00024D55B462146179A059800F04DF8054421
:1032E0001CE00498002807DBDDE90301884203DDC8
:1032F0000098405C179901E0179930205A46904792
:10330000049805F10105401C04900198401E0190AD
:1033100004D12E205A46179990476D1CBAF100012E
:10332000AAF1010ADDDC05E017F8010B5A461799EE
:1033300090476D1CB8F10001A8F10108F4DC5B4670
:103340002146179A0598ABE62D0000002B000000DF
:10335000200000002DE9F041044600251E461746D6
:10336000880404D405E039462020B0476D1C641E53
:10337000F9D52846BDE8F0812DE9F0410446002545
:103380001E469046C80301D5302700E02027880458
:1033900004D505E041463846B0476D1C641EF9D59A
:1033A0002846BDE8F0810A68531C0B601070704716
:1033B00010B56FF00400FEF7C3FF0A4800680A4921
:1033C000B0FBF1F0094908700846007800EB4001B5
:1033D000C1EBC0104FF6FF7101EAC000044908803C
:1033E00010BD00008800002000127A00B800002004
:1033F000BA0000200146114A12884A434FF0E023E8
:103400005A6100229A611A46126942F001021A6159
:1034100000BF4FF0E022106900F001021AB100F481
:103420008032002AF5D04FF0E022126922F001022A
:103430004FF0E0231A6100229A617047BA00002021
:103440000146114A12784A434FF0E0235A610022A4
:103450009A611A46126942F001021A6100BF4FF0E8
:10346000E022106900F001021AB100F48032002A53
:10347000F5D04FF0E022126922F001024FF0E02374
:103480001A6100229A617047B800002010B5002828
:1034900021D0114B0022001F196803E0814203D89C
:1034A0000A4649680029F9D152B11368841A9C422E
:1034B00004D1006818441060104602E0506000E03B
:1034C000186039B102680B1A934203D10B681A4491
:1034D00002604968416010BD0001002070B50446DB
:1034E00000250948008800F4004058B10020064932
:1034F0000988C1F30E01054A505421461046FCF7D5
:1035000063FE0546284670BDB0000020700500200F
:103510002DE9F04104460E461546012700201849C2
:103520000880FF2C0AD800BF1648008800F0400031
:103530000028F9D01349091D0C8003E0214612A090
:1035400000F096F9CEB1C5B110E00A20FFF752FFA6
:103550000B48008800F4004040B13046FFF7BEFF42
:1035600020B1012006490880002703E0681E80B2D0
:103570000500EAD100BF05B901273846BDE8F08152
:10358000B00000200048004025730D0A0000000034
:103590008CB000BF0020089009900A900B90FEF7B5
:1035A00015FFFDF717F90023302266A10120FEF771
:1035B0009DFCFEF7F7FD4FF47A70FFF71BFF4FF409
:1035C0007A70FFF717FF4FF47A70FFF713FF0023AD
:1035D0001A465FA10120FEF789FC002310225CA19E
:1035E0000120FEF783FC0023202259A10120FEF7D1
:1035F0007DFC0023302256A10120FEF777FC00233A
:10360000402253A10120FEF771FCFEF7CBFD98E0AC
:1036100054480068B0F57A7F05D108A8FDF794FA00
:1036200000205049086050480088012829D14F489F
:10363000006808B9012000E000204C490860202201
:103640004B496846FCF790FD00231A4640A1012033
:10365000FEF74CFCFEF7A6FD002043490880454AD2
:1036600045A16846FFF720FA00231A466946012063
:10367000FEF73CFCFEF796FD14213E48FCF78DFD5D
:1036800000BF3EA13B48FCF79FFD88B120213D488B
:10369000FDF7FAFD0120FEF751FB1420FFF7AAFE0B
:1036A00020213848FDF7F2FD14213248FCF775FD62
:1036B00035A13048FCF788FD88B120213148FDF75D
:1036C000E5FD0020FEF73AFB1420FFF793FE2021D2
:1036D0002C48FDF7D9FD14212648FCF75EFDFEF7C6
:1036E00001F92B492B48FDF70EF954202A4908709F
:1036F00028480078FEF722FB482027490870244814
:103700000078FEF71BFB4D20234908702348027800
:103710000078401C214B187021A12548FFF7C4F9FF
:103720002348FEF74FFB104800783030C1B2002329
:1037300030220120FEF78CFBFEF734FD3220FFF72C
:1037400059FE65E773657276655F6F6B0000000078
:103750002020202020202020202020202020202069
:103760002000000000000020CC0000209401234233
:10377000303B0008A00C0020257300006F70656EC0
:1037800000000000000C0140636C6F7365000000D6
:103790000700002006000020810000200800002013
:1037A0004E756D2E2564202076657273696F6E00EC
:1037B00009000020F0B50B30154D20F00701002462
:1037C000144A0FE003688B420BD38B4205D95E1A73
:1037D00043184768C3E9006700E04368136002C00C
:1037E00004E0021D10680028ECD12046002802D118
:1037F000286808B10020F0BD064A07481060074A53
:10380000121A22F00702C0E9002401202860D7E73D
:103810000401002000010020BC0C0020B80E002094
:1038200030B588B1CB08114C246804EBC3139B5C02
:1038300001F007050124AC402343CC080B4D2D6853
:1038400005EBC414A35410E0CB08084C246804EB27
:10385000C3139B5C01F007050124AC40A343CC08D3
:10386000024D2D6805EBC414A35430BDD4000020D4
:103870000FB438B505A800900F48009A0499FFF7D7
:1038800027F9002000900C48FCF7B0FC85B200241A
:103890000DE000BF40210948FEF7FEFF0028F9D0E7
:1038A0000548015D0548FFF7C4F8601C84B2AC42CE
:1038B000EFDB38BC5DF814FB7009002000480040C5
:1038C00010B586B00446012144F20400FEF740FB27
:1038D0002448FEF793FF4FF40070ADF81400032066
:1038E0008DF8160018208DF8170005A91E48FDF761
:1038F000F7FB4FF48060ADF8140004208DF817003A
:1039000005A91948FDF7ECFB25208DF800000320E0
:103910008DF801008DF8020001208DF80300684643
:10392000FEF75AF84FF4E13001900020ADF808009E
:10393000ADF80A00ADF80C00ADF810000C20ADF8A1
:103940000E0001A90748FFF703F8012240F22551B4
:103950000448FEF7D8FF01210248FEF743FF06B0F6
:1039600010BD000000380140000801401CB50446AD
:1039700001210820FEF7ECFA01218804FEF7C8FABD
:103980002748FEF73BFF4FF48060ADF800000320AE
:103990008DF8020018208DF8030069462148FDF7D4
:1039A0009FFB4FF40060ADF8000048208DF8030045
:1039B00069461C48FDF794FB1B48046000201A4927
:1039C0008880C880088188810C2048811448FEF7CF
:1039D000BFFF01211248FEF705FF012240F22551E9
:1039E0000F48FEF790FF27208DF8040002208DF885
:1039F000050003208DF8060001208DF8070001A8BE
:103A0000FDF7EAFF41F61F416320FEF753FD00205A
:103A10000649088000210648FEF782FD1CBD000013
:103A200000480040000C0140C80B0020B0000020FE
:103A30000014004010B5044600210A48FEF7D2FEEB
:103A40001CB10C200849488102E008200649488141
:103A500005490448FEF77CFF01210248FEF7C2FE3B
:103A600010BD000000480040C80B002070B505469E
:103A70000C46082D2DD2DFE805F004090E13181DA1
:103A800022274FF496602749086022E04FF4166021
:103A9000244908601DE04FF496502249086018E060
:103AA0004FF416501F49086013E04FF496401D492B
:103AB00008600EE04FF416401A49086009E04FF420
:103AC00061401849086004E04FF4E130154908608E
:103AD00000BF00BF00211448FEF784FE11480068B3
:103AE000124908600020C88014B9888008810FE05E
:103AF000012C05D120030D4988808010088107E042
:103B0000022C05D1E002094988804FF4C060088189
:103B100006490548FEF71CFF01210348FEF762FE37
:103B200070BD0000B400002000480040C80B002019
:103B300020202020202020202020202020000000E5
:103B40000000000000000000000000000000000075
:103B5000000000000000002F000000000700070028
:103B600000147F147F1400242A7F2A120062640844
:103B700013230036495522500000050300000000C1
:103B80001C224100000041221C000014083E0814C1
:103B90000008083E0808000000A0600000080808AF
:103BA0000808000060600000002010080402003EC9
:103BB0005149453E0000427F400000426151494664
:103BC000002141454B31001814127F100027454554
:103BD0004539003C4A494930000171090503003666
:103BE0004949493600064949291E00003636000079
:103BF000000056360000000814224100001414147E
:103C00001414000041221408000201510906003278
:103C10004959513E007C1211127C007F49494936B6
:103C2000003E41414122007F4141221C007F494921
:103C30004941007F09090901003E4149497A007F55
:103C40000808087F0000417F4100002040413F01FB
:103C5000007F08142241007F40404040007F020C5A
:103C6000027F007F0408107F003E4141413E007FFB
:103C700009090906003E4151215E007F09192946C4
:103C80000046494949310001017F0101003F4040A0
:103C9000403F001F2040201F003F4038403F00634E
:103CA0001408146300070870080700615149454370
:103CB00000007F4141000204081020000000414143
:103CC0007F00000402010204004040404040000028
:103CD00001020400002054545478007F48444438C2
:103CE00000384444442000384444487F0038545449
:103CF000541800087E0901020018A4A4A47C007FC7
:103D0000080404780000447D4000004080847D0069
:103D1000007F102844000000417F4000007C041810
:103D20000478007C0804047800384444443800FCDB
:103D3000242424180018242418FC007C08040408F7
:103D400000485454542000043F444020003C40406C
:103D5000207C001C2040201C003C4030403C0044A3
:103D600028102844001CA0A0A07C004464544C44AB
:103D700000083641000000007F00000000413608C6
:103D80000000100808101008007F7D55797F0000A2
:103D90000000000000000000000000000000000023
:103DA00000F80000000000000033300000000010A8
:103DB0000C06100C0600000000000000000040C0CF
:103DC0007840C0784000043F04043F0404000070C1
:103DD00088FC08300000001820FF211E0000F008B9
:103DE000F000E018000000211C031E211E0000F05E
:103DF0000888700000001E212324192721101016A6
:103E00000E000000000000000000000000000000A4
:103E100000E0180402000000000718204000000223
:103E20000418E00000000040201807000000404097
:103E300080F0804040000202010F010202000000F9
:103E400000F0000000000101011F0101010000005D
:103E500000000000000080B07000000000000000C2
:103E6000000000000000000101010101010100004B
:103E700000000000000000303000000000000000E2
:103E8000000080601804006018060100000000E0D7
:103E900010080810E000000F102020100F00001084
:103EA00010F8000000000020203F202000000070DB
:103EB00008080888700000302824222130000030D3
:103EC0000888884830000018202020110E000000CB
:103ED000C02010F8000000070424243F240000F84C
:103EE0000888880808000019212020110E0000E031
:103EF000108888180000000F112020110E000038D3
:103F00000808C83808000000003F000000000070EA
:103F1000880808887000001C222121221C0000E073
:103F200010080810E0000000312222110F000000EC
:103F300000C0C000000000000030300000000000A1
:103F40000080000000000000806000000000000011
:103F500080402010080000010204081020004040AA
:103F600040404040400004040404040404000008ED
:103F700010204080000000201008040201000070A2
:103F800048080808F0000000003036010000C0308A
:103F9000C828E810E0000718272423140B000000AD
:103FA000C038E0000000203C23020227382008F837
:103FB000888888700000203F202020110E00C0302B
:103FC000080808083800071820202010080008F802
:103FD00008080810E000203F202020100F0008F8FB
:103FE0008888E8081000203F20202320180008F8C7
:103FF0008888E8081000203F200003000000C0303F
:1040000008080838000007182020221E020008F8BF
:1040100008000008F808203F210101213F20000886
:1040200008F8080800000020203F202000000000C1
:104030000808F8080800C08080807F00000008F8A9
:1040400088C028180800203F20012638200008F8E2
:10405000080000000000203F20202020300008F849
:10406000F800F8F80800203F003F003F200008F863
:1040700030C00008F808203F200007183F00E0107B
:1040800008080810E0000F10202020100F0008F88A
:1040900008080808F000203F210101010000E0109D
:1040A00008080810E0000F18242438504F0008F8C2
:1040B000888888887000203F2000030C3020007022
:1040C0008808080838000038202121221C00180820
:1040D00008F8080818000000203F2000000008F839
:1040E00008000008F808001F202020201F00087882
:1040F000880000C83808000007380E010000F808E2
:1041000000F80008F800033C0700073C030008180B
:1041100068808068180820302C03032C3020083871
:10412000C800C83808000000203F20000000100828
:104130000808C83808002038262120201800000070
:1041400000FE020202000000007F40404000000C20
:1041500030C000000000000000010638C00000026E
:104160000202FE000000004040407F00000000000E
:104170000402020204000000000000000000000031
:10418000000000000000808080808080808000022D
:104190000204000000000000000000000000000019
:1041A0008080808000000019242222223F2008F80D
:1041B000008080000000003F112020110E00000050
:1041C000008080800000000E1120202011000000DF
:1041D00000808088F800000E112020103F20000091
:1041E000808080800000001F222222221300008095
:1041F00080F0888888180020203F202000000000E0
:10420000808080808000006B94949493600008F814
:10421000008080800000203F210000203F2000809F
:104220009898000000000020203F2020000000009F
:1042300000809898000000C08080807F000008F80F
:10424000000080808000203F24022D3020000008E4
:1042500008F8000000000020203F2020000080809F
:10426000808080808000203F20003F20003F8080B1
:10427000008080800000203F210000203F200000BF
:10428000808080800000001F202020201F00808070
:1042900000808000000080FFA12020110E0000009F
:1042A000008080808000000E112020A0FF80808090
:1042B00080008080800020203F212000010000003D
:1042C0008080808080000033242424241900008012
:1042D00080E0808000000000001F2020000080801F
:1042E000000000808000001F202020103F208080E0
:1042F00080000080808000010E3008060100808070
:104300000080008080800F300C030C300F00008094
:104310008000808080000020312E0E3120008080BF
:1043200080000080808080818E70180601000080EF
:104330008080808080000021302C2221300000000D
:104340000000807C020200000000003F40400000AE
:104350000000FF00000000000000FF00000000025D
:10436000027C800000000040403F00000000C020B0
:104370002060C08080600000000000000000FEEEB1
:10438000F6F6768EFE007F7F7F6C7F7F7F000000D9
:10439000B04300080000002008010000F42A0008D3
:1043A000B844000808010020B0110000042B0008E8
:1043B00000000000000000000068656C6C6F0000E9
:1043C00000000000000000000000000000000000ED
:1043D00000000000000000000000000000000000DD
:1043E00000000000000000000000000000000000CD
:1043F00000000000000000000000000000000000BD
:1044000000000000000000000000000000000000AC
:10441000000000000000000000000000000000009C
:10442000000000000000000000000000000000008C
:10443000000000000000000000A24A04000000008C
:104440000000000001020304060708090000000044
:104450000102030401020304060708090204060816
:10446000000000000000000000000000000000004C
:10447000000000000000000000000000000000003C
:10448000000000000000000000001703050000000D
:104490000700000000000000000000000000000015
:1044A000000017043125032402000000170000005B
:0844B000000000000000000004
:0400000508000131BD
:00000001FF
