:020000040800F2
:10000000E013002045010008B11F00086D1800082A
:10001000AD1F0008210A0008D530000800000000CC
:10002000000000000000000000000000BD270008E4
:10003000AD0F00080000000029240008A5290008D1
:100040005F0100085F0100085F0100085F01000810
:100050005F0100085F0100085F0100085F01000800
:100060005F0100085F0100083D1500085F010008FE
:100070005F0100085F0100085F0100085F010008E0
:100080005F0100085F0100085F0100085F010008D0
:100090005F0100085F0100085F0100085F010008C0
:1000A0005F010008B92A00085F0100085F0100082D
:1000B0005F0100085F0100085F0100085F010008A0
:1000C0005F0100085F0100085F0100085F01000890
:1000D0005F010008E52C00085F010008A52D00085D
:1000E0005F0100085F0100085F0100085F01000870
:1000F0005F0100085F0100085F0100085F01000860
:100100005F0100085F0100085F0100085F0100084F
:100110005F0100085F0100085F010008E12A000894
:100120005F0100085F0100085F0100085F0100082F
:10013000DFF80CD000F0B2FB004800471145000882
:10014000E01300200648804706480047FEE7FEE728
:10015000FEE7FEE7FEE7FEE7FEE7FEE7FEE7FEE777
:10016000A9290008310100082DE9F0410024061BEF
:10017000254671F1000605DA01240027D0EB0700BF
:1001800067EB0101161E73F1000605DA0027D2EBBA
:100190000702012567EB030300F092FA86460E463C
:1001A00017469C46AC4204D00025D0EB050E65EB0B
:1001B000010624B10020D2EB000760EB030C70466F
:1001C00031463A466346BDE8F081D2B201E000F81C
:1001D000012B491EFBD270470022F6E710B51346EB
:1001E0000A4604461946FFF7F0FF204610BD421E9E
:1001F00012F8013F002BFBD111F8013B02F8013B43
:10020000002BF9D1704730B505462A460B4612F847
:10021000010B13F8014B08B1A042F8D01CB1002823
:1002200002D06D1CF1E7284630BD421C10F8011BBE
:100230000029FBD1801A704710B5044600E0401C2D
:100240000378002BFBD100E0401C521E04D311F8B0
:10025000013B0370002BF7D100210170204610BD37
:10026000034611F8012B00F8012B002AF9D118469A
:1002700070472DE9FE4F804681EA0300C00F0C460F
:10028000009021F0004123F00045B8EB0200A941A5
:1002900005D24046214690461C460B46024623F0B6
:1002A0000040104347D0270DC7F30A00C3F30A519B
:1002B0000290401A019040286BDAC3F3130040F417
:1002C000801B0098924620B10023D2EB030A63EB17
:1002D0000B0B01985946C0F14002504600F021FA3C
:1002E00006460D4650465946019A00F039FA10EB81
:1002F00008006141002487EA115284EAE7731A4337
:1003000040D0009A62B3019A012A4FEA075215DCE5
:10031000001B61EB02014FF0004202EA0752CDE9F7
:100320000042001C41F5801132462B4600F039FA9C
:1003300003B0BDE8F08F40462146F9E7001B61EBB2
:100340000201001C41F5801300185B412018A2F542
:10035000001747EB030140EAD570B6196D4111E073
:100360006D084FEA360645EAC0754FEA0752001B92
:1003700061EB0201001C41F5801149084FEA300091
:100380000019514132462B4603B0BDE8F04F00F052
:10039000F9B90098012240000023D0EB020263EB80
:1003A000E073009821464FEAE074B8EB000061EB7F
:1003B0000401E9E783F000435BE781F0004158E77F
:1003C0002DE9FE4F81EA030404F0004421F00041CE
:1003D00000944FF0000B23F0004350EA01045ED07C
:1003E00052EA03045BD0C3F30A54C1F30A552C4408
:1003F000A4F2F3340194A0FB0254C1F3130141F4BD
:100400008011C3F3130343F4801301FB024400FB88
:10041000034E840A970A44EA815447EA8357A4FBAF
:10042000076802958D0A05FB07854FEA932C04FBAC
:100430000C542705029D4FEA065847EA1637B5EBDC
:1004400008056EEB070C870E920E47EA811742EA09
:100450008312A7FB0201B6EB0B0164EB00042B0D2A
:1004600043EA0C335E1844EB1C50DA465146E7FB76
:100470000201C5F313044FEA0B3343EA14534FEA66
:100480000432019C43EA0603A4F10C040294009C8C
:10049000CDE900B400F085F903B0BDE8F08F00208D
:1004A0000146F9E72DE9F04D81EA030404F0004B21
:1004B00021F0004514464FF0000A23F0004150EAB5
:1004C000050220D054EA01021DD0C5F30A570246A6
:1004D000C5F31303C1F31300C1F30A5640F48015AA
:1004E00043F48013A7EB0608101BD64608F2FD382C
:1004F00073EB050002D308F1010801E092185B419B
:10050000B8F1000F03DA00200146BDE8F08D0020AD
:100510004FF48011064684460EE0171B73EB050767
:1005200005D3121B63EB050306434CEA010C490893
:100530004FEA300092185B4150EA0107EDD152EAD0
:10054000030012D082EA040083EA0501084305D0C3
:10055000101BAB4106D20122002306E000224FF01F
:10056000004302E06FF0010253101AEB06004CEB5F
:10057000085110EB0A0041EB0B01BDE8F04D00F013
:1005800001B90EB5C10F80EAE0700844CA07002126
:1005900040F233438DE80E000A460B4600F001F9A5
:1005A00003B000BD0EB540F2334102910021CDE908
:1005B00000110A460B4600F0F4F803B000BD3EB54A
:1005C000CA17CB0F002450405140C0186141DA07D0
:1005D00040F233430094CDE901232246234600F044
:1005E000E0F803B030BDC1F30A5210B5C1F31301F6
:1005F00040F2FF3341F480119A4201DA002010BD2D
:1006000040F233439A42A2F2334203DC524200F0FA
:1006100097F810BD904010BD70B5C1F30A5201F0BB
:1006200000450024C1F3130140F2FF3341F480116F
:100630009A4202DA0020014670BD40F233439A42EA
:10064000A2F2334203DC524200F07AF801E000F0FB
:1006500068F82C43F0D00023D0EB030063EB0101DA
:1006600070BD000030B5041E71F1000404DB4FF0D2
:100670000044404264EB0101141E73F1000405DBE9
:100680001C464FF00043524263EB0403994208BFFB
:10069000904230BD30B50B46014600202022012497
:1006A00009E021FA02F59D4205D303FA02F5491B40
:1006B00004FA02F52844151EA2F10102F1DC30BD56
:1006C0002DE9F05F0546002092469B468846064687
:1006D000814640241BE0284641464746224600F01A
:1006E0002FF853465A46C01A914110D31146184666
:1006F000224600F016F82D1A67EB01084F462246F5
:100700000120002100F00DF817EB00094E41201EDA
:10071000A4F10104DFDC484631462A464346BDE8E1
:10072000F09F202A04DB203A00FA02F100207047F3
:100730009140C2F1200320FA03F31943904070471F
:10074000202A04DB203A21FA02F00021704721FA26
:1007500002F3D040C2F1200291400843194670478D
:10076000202A06DBCB17203A41FA02F043EAE07375
:1007700006E041FA02F3D040C2F120029140084362
:100780001946704710B5141E73F1000408DA401CB6
:1007900041F1000192185B411A4301D120F00100A0
:1007A00010BD2DE9F04D92469B4611B1B1FA81F290
:1007B00002E0B0FA80F220329046FFF7B2FF044622
:1007C0000F4640EA0A0041EA0B0153465A460843E5
:1007D00013D0114653EA010019D0C8F14002504627
:1007E000FFF7AEFF05460E46504659464246FFF714
:1007F00098FF084305D0012004E020463946BDE8B3
:10080000F08D0020054346EAE0762C4337430A98F2
:100810006305E40AA0EB08000022FD0A44EA4754FD
:100820000A3002D500200146E9E7010510196941A7
:10083000DDE9084500196941BDE8F04DA2E770B552
:1008400021F0004303430CD0C1F30A550024D5EB3B
:10085000040564EB0403D617AD1AB34102DB002094
:10086000014670BD201841EB025170BDC1F30A5220
:10087000C1F3130140F2FF3341F480119A4202DACE
:1008800000200146704740F233439A42A2F23342BD
:1008900002DC5242FFF754BFFFF743BF064C074D3F
:1008A00006E0E06840F0010394E807009847103440
:1008B000AC42F6D3FFF740FCD85D0008F85D0008B5
:1008C0002DE9F04D00231A461B1A8A4103DB002054
:1008D0000146BDE8F08DC1F30A52C1F3130141F4A2
:1008E00080154FF0000BD10702D100186D41521E48
:1008F0000027044640F2FF11384601EB620A3E46EB
:100900008046024600204FF48011FFF719FFC219FC
:100910007141BB1846EB0100B4EB030C75EB000C06
:1009200004D3E41A65EB000517460E46241908F1B6
:1009300001006D4180463428E3DDF91946EB0600DD
:10094000091BA84103D24FF0FF32134601E00022F9
:1009500013461BEB070046EB0A51BDE8F04DFFF7CD
:1009600011BF70B58C1810F8015B15F0070301D1A9
:1009700010F8013B2A1106D110F8012B03E010F802
:10098000016B01F8016B5B1EF9D12B0705D4002325
:10099000521E0DD401F8013BFAE710F8013BCB1AC7
:1009A000921C03E013F8015B01F8015B521EF9D5BC
:1009B000A142D8D3002070BD02780B7803700A7072
:1009C0007047000010B504462CB900200E4988710C
:1009D0000E49C8700FE0012C03D108200A49487164
:1009E00004E0022C02D10C2007494871012006497D
:1009F00088710649C87006480470034800F0F4FD89
:100A0000024801F0D7FA10BD7801002080010020D3
:100A100085010020032000E0401E0028FCD1704723
:100A200000BFFEE710B507E002E0C82003F0BEF902
:100A300001F0B6FB0028F8D1024800680028F3D086
:100A400010BD00005401002010B500241548406876
:100A500020F47040134948600846406840F4004064
:100A6000486004E0601CC4B2012003F0C5F90E48E0
:100A7000006808B1642CF5DB642C01DB012010BD9B
:100A8000002404E0601CC4B2012003F0B5F906485C
:100A9000006808B9642CF5DB642C01DB0120EEE76B
:100AA0000020ECE7002001402C01244208B5012180
:100AB000080201F06BFD4FF40060ADF8000010205B
:100AC0008DF8030003208DF802006946064800F007
:100AD000F5FD4FF40061044800F0C6FE00F068F830
:100AE000FFF7B2FF08BD00000020014010B5002450
:100AF00004E0601CC4B2012003F07EF90D480068D8
:100B000008B1642CF5DB002404E0601CC4B20120B1
:100B100003F072F90748006808B9642CF5DB282057
:100B200003F06AF90348006808B1012010BD0020F5
:100B3000FCE700002C01244270B50024002506E0EB
:100B40006006040EFFF7D2FF0443681CC5B2082DEF
:100B5000F6DB204670BD7CB505460E4600F028F851
:100B6000FFF772FFF8B9002405E0FFF7E5FF0DF885
:100B70000400601CC4B2052CF7DB9DF800009DF852
:100B8000011008449DF8021008449DF80310084421
:100B90009DF80410884208D19DF8000030709DF83F
:100BA0000200287001E001207CBD0020FCE700006D
:100BB00010B50C48406820F470400A494860084667
:100BC000406840F440504860002007490860142005
:100BD00003F0ECF801200549C1F8AC011E2003F038
:100BE0000BF910BD00200140AC012442000024425A
:100BF00000B500F021F94A48007800114FF47A71ED
:100C000048434749097801F00F0101EBC10202EBAB
:100C1000011100EB810042494978091101EB810182
:100C200000EB41003E49497801F00F0108443D497D
:100C300008803B48807800F00F0039498978091115
:100C400001EB810100EB4100364988703448C078DF
:100C500000F00F003249C978091101EB810100EB66
:100C600041003049C8702E48007900F00F002C492F
:100C70000979091101EB810100EB41002949087153
:100C800027480079302101EB2010274908702448BB
:100C9000007900F00F00303048703A20887020480A
:100CA000407900F00F001E494979091101EB8101DB
:100CB00000EB41001B49487119484079302101EB94
:100CC00020101949C8701648407900F00F003030E4
:100CD00008713A2048711248807900F00F001049DD
:100CE0008979091101EB810100EB41000D498871FF
:100CF0000B488079302101EB20100B49887108489E
:100D0000807900F00F003030C8710648007907493B
:100D1000088004484079488002488079888000BD76
:100D2000E8000020E0000020E30C0020300100205B
:100D300010B50121042001F029FC0A480068C0F325
:100D40001300084908600846006807490843054938
:100D5000086004480C30006840F0400001490C3144
:100D6000086010BD000801400000303310B5014696
:100D700000232E4C23602E4CC4F89C310123C4F870
:100D800094312C4B1B6823F070632A4C236023465C
:100D90001B6843F04073236041F00101002216E01C
:100DA00001F0010323B10123204C241D236003E043
:100DB00000231E4C241D236001231C4C0834236097
:100DC00000231B4CC4F89C314910531CDAB2082A8A
:100DD000E6DB184B1B6823F07063164C2360234638
:100DE0001B6843F000632360002213E040100F4BA8
:100DF0007C3B1B6813B140F0800001E000F07F00F5
:100E000001230A4C083423600023094CC4F89C31A8
:100E1000531CDAB2082AE9DB0123044C08342360AE
:100E20000023034CC4F8943110BD0000940121420A
:100E3000000021420008014000B58C20FFF796FF1A
:100E40000E4948708820FFF791FF0C498870862072
:100E5000FFF78CFF0949C8708420FFF787FF074917
:100E600008718220FFF782FF044948718020FFF754
:100E70007DFF00F07F000149887100BDE80000207F
:100E800010B50A4600232A4C23602A4CC4F89C3132
:100E90000123C4F89431284B1B6823F07063264C5F
:100EA000236023461B6843F04073236000F0FE007C
:100EB000002116E000F0010323B101231C4C241D86
:100EC000236003E000231A4C241D23600123184CE7
:100ED000083423600023174CC4F89C3140104B1C8D
:100EE000D9B20829E6DB002116E002F0010323B1A4
:100EF00001230F4C241D236003E000230C4C241D10
:100F0000236001230A4C083423600023094CC4F8F1
:100F10009C3152104B1CD9B20829E6DB0123044C4A
:100F2000083423600023034CC4F8943110BD000042
:100F300094012142000021420008014000B5002137
:100F40008E20FFF79DFF80210846FFF799FF164886
:100F500041788C20FFF794FF134881788820FFF7B1
:100F60008FFF1148C1788620FFF78AFF0E4801796C
:100F70008420FFF785FF0C4841798220FFF780FF2E
:100F8000094881798020FFF77BFF0748C1798A20D3
:100F9000FFF776FFA5219020FFF772FF80218E20BA
:100FA000FFF76EFF00BD0000E800002070472DE94C
:100FB000F04782460C4615461F46DDF820903C441B
:100FC0004D44402C01D8802D01D9BDE8F0873E4624
:100FD0000BE0C84606E042463146504603F048FB67
:100FE00008F10108A845F6D3761CA642F1D300BF4C
:100FF000EBE710B50446207B012802D1206803F0FE
:1010000005FA002020606060A060207310BD70B5FC
:1010100004460E460025206898B90120207330460A
:1010200003F0F0FA20602068E0B100206060A66064
:1010300003E00020216848556D1CA068A842F8D83C
:1010400010E00220207303E00020216848556D1C49
:10105000A068A842F8D800206060A068B04201D221
:101060000020206070BD00002DE9F04780468946D1
:1010700017461C464046FFF7D8F8C5B24846FFF76A
:10108000D4F8C6B238212046FFF7C1FF206810B956
:101090000120BDE8F0871020216808706068401CBE
:1010A000606005F10D003044216848706068401CA4
:1010B000606000202168887003202168C870606823
:1010C000801C60602168081D032221A1FFF7B4F88D
:1010D0006068C01C606001202168C8716068401CA5
:1010E00060604020216808726068401C6060380AB7
:1010F0002168487221688F726068801C60600020DF
:101100002168C87221680D736068801C6060216866
:1011100001F10D002A464146FFF78EF86068284429
:101120006060002105F10D0022681154401C226806
:1011300016546068801C606021680F31481932467F
:101140004946FFF779F86068304460600020A0E706
:101150004544500010B5044602212046FFF757FFD2
:10116000206808B9012010BDC0216268501C606071
:101170002068815400216268501C6060206881549E
:10118000A28891B2206800F0D1F90020EBE72DE9A8
:10119000F84F81460D4617461E460A9C00200090D7
:1011A0004846FFF742F800F0FF08022E03D117B9B6
:1011B0000120BDE8F88F022E08D13846FFF735F838
:1011C000824651462046FFF722FF04E005F1180150
:1011D0002046FFF71CFF206808B90220E9E78021BC
:1011E0006268501C606020688154B9F1000F40D0E3
:1011F000022E07D13846FFF718F80C30284400B209
:10120000009004E005F10800404400B20090A1887D
:101210008AB22068009901F05FFF6168084460604D
:10122000C0216268501C606020688154002162689F
:10123000501C6060206881546168481C60602068B0
:1012400000F80180D4E90012881842464946FEF7AA
:10125000F3FF60684044606055216268501C606024
:1012600020688154AA216268501C60602068815403
:1012700027E0022E07D13846FEF7D7FF0A30284470
:1012800000B2009002E0A81D00B20090A1888AB2CE
:101290002068009901F020FF6168084460604021E7
:1012A0006268501C60602068815455216268501C3F
:1012B000606020688154AA216268501C60602068C8
:1012C00081546168481C606020684654022E3AD1FF
:1012D0003846FEF7AAFF00F0FF0A4FF0000B00218E
:1012E0006268501C6060206881546168481C6060BE
:1012F000206800F801A00AE017F80B106268501C83
:101300006060206881540BF1010000F0FF0BD345B1
:10131000F2DB290E6268501C606020688154C5F3BE
:1013200007416268501C606020688154C5F3072142
:101330006268501C6060206881546268501C606064
:10134000206885540BE0C5F307216268501C60607B
:10135000206881546268501C6060206885540020B9
:1013600027E7000010B5642401202B490870010311
:101370002A4800F077FA502002F018FD4FF480510F
:10138000264800F071FA224625A126A001F04AFA6B
:1013900000231A4625A1012001F0C5F801F020FA2A
:1013A00022461FA123A001F03DFA22461CA125A040
:1013B00001F038FA22461AA122A001F033FA642083
:1013C00002F0F4FC4FF4967215A121A001F02AFA64
:1013D0000023102228A1012001F0A5F801F000FA55
:1013E00022460FA126A001F01DFA22460CA12EA034
:1013F00001F018FA224630A130A001F013FA0023C0
:10140000202232A1012001F08EF801F0E9F900203C
:101410000149087010BD00000400002000200140B8
:101420004F4B000041540D0A000000004154206F52
:101430006B00000041542B43574D4F44453D310D47
:101440000A00000041542B5253540D0A00000000C2
:1014500041542B43574A41503D22434D43432D5065
:101460004A6773222C2231333639383435333239D6
:1014700036220D0A000000006C696E6B206F6B0055
:1014800041542B43495053544152543D22544350EC
:10149000222C223138332E3233302E34302E333951
:1014A000222C3837360D0A0041542B4349504D4FFA
:1014B00044453D310D0A00003E00000041542B43DD
:1014C000495053454E440D0A00000000696E69748E
:1014D0005F6F6B0008B50121042001F057F8102060
:1014E0008DF803004002ADF8000003208DF80200E3
:1014F00069460D4800F0E2F84FF400510A4800F048
:10150000B3F910208DF803000002ADF800000320AD
:101510008DF802006946044800F0D0F84FF480517D
:10152000014800F0A1F908BD0020014070B5044653
:101530000D462946204601F0B1FD70BD10B51020C2
:1015400000F03EF870B31848007801280AD1174817
:101550000078012802D10020154908800220124994
:10156000087018E010480078022814D10F4800785D
:10157000012806D10E48008840F400400C4908803C
:1015800006E00A480078022802D1012007490870C5
:1015900001200549087004480078FFF713FA10206D
:1015A00000F008F810BD0000850100208401002033
:1015B000D800002001490860704700001404014071
:1015C000014600200022074B1B6803EA0102054B7D
:1015D00014331B680B4013B10AB1012000E0002056
:1015E0007047000000040140002123498279002A4D
:1015F0003AD00A46126803689A430B461A600A1DDD
:10160000126803689A430B1D1A60027911440A6834
:1016100003681A430A60184A0832126803689A433A
:10162000154B08331A601A1D126803689A43124B4F
:101630000C331A604279102A0ED11A1F12680368FF
:101640001A430D4B08331A601A1D126803681A43B7
:10165000094B0C331A600DE00749427911440A68BE
:1016600003681A430A6005E0027911440A680368B6
:101670009A430A60704700000004014030B5002220
:101680008B071C0F0F2303FA04F20B4B8C1053F83B
:1016900024309343084C8D1044F8253023468C1099
:1016A00053F824308C07240F00FA04F42343024C2F
:1016B0008D1044F8253030BD080001402DE9F0417F
:1016C000024600250026002000230024002791F870
:1016D00003C00CF00F0591F803C00CF0100CBCF126
:1016E000000F03D091F802C04CEA050591F800C044
:1016F000BCF1000F31D0146800202BE04FF0010C3A
:101700000CFA00F3B1F800C00CEA03069E4220D1A7
:1017100083004FF00F0C0CFA03F7BC4305FA03FCEF
:101720004CEA040491F803C0BCF1280F06D14FF035
:10173000010C0CFA00FCC2F814C00AE091F803C0D6
:10174000BCF1480F05D14FF0010C0CFA00FCC2F8B7
:1017500010C0401C0828D1D31460B1F800C0BCF1FF
:10176000FF0F34DD546800202EE000F1080C4FF02C
:10177000010808FA0CF3B1F800C00CEA03069E4217
:1017800021D183004FF00F0C0CFA03F7BC4305FA8C
:1017900003FC4CEA040491F803C0BCF1280F05D106
:1017A00000F1080C08FA0CF8C2F8148091F803C094
:1017B000BCF1480F07D100F1080C4FF0010808FAFE
:1017C0000CF8C2F81080401C0828CED35460BDE845
:1017D000F0810000F0B50A46002300240021002516
:1017E00000F00046B6F1004F02D11D4EF16901E054
:1017F0001B4E7168C0F3034583B200F44016B6F582
:10180000401F08D121F07061154E766826F0706691
:10181000134F7E6012E000F48016B6F5801F06D1EB
:10182000032606FA05F4A14341F0706106E0460D77
:10183000360103FA06F6B14341F0706122B1460D5C
:10184000360103FA06F6314300F00046B6F1004FC8
:1018500002D1034EF16101E0014E7160F0BD000064
:1018600000000140416170470161704700BFFEE721
:1018700000B501200A490860FFF7CCF802200849AA
:101880000860FFF7C7F802200549091D0860FFF747
:10189000C1F801200249091D0860FFF7BBF800BD2F
:1018A000100C014000B501200A490860FFF7B2F8AA
:1018B000022008490860FFF7ADF801200549091F1B
:1018C0000860FFF7A7F802200249091F0860FFF728
:1018D000A1F800BD140C014000B5024602F08000E2
:1018E00018B102206649086003E002206449091D1E
:1018F0000860FFF78FF8012061490860FFF78AF858
:1019000001205F49091D0860FFF784F802F04000DC
:1019100018B102205A49086003E002205849091D05
:101920000860FFF777F8012055490860FFF772F863
:1019300001205349091D0860FFF76CF802F02000F0
:1019400018B102204E49086003E002204C49091DED
:101950000860FFF75FF8012049490860FFF75AF86F
:1019600001204749091D0860FFF754F802F01000F4
:1019700018B102204249086003E002204049091DD5
:101980000860FFF747F801203D490860FFF742F87B
:1019900001203B49091D0860FFF73CF802F00800F0
:1019A00018B102203649086003E002203449091DBD
:1019B0000860FFF72FF8012031490860FFF72AF887
:1019C00001202F49091D0860FFF724F802F00400E8
:1019D00018B102202A49086003E002202849091DA5
:1019E0000860FFF717F8012025490860FFF712F893
:1019F00001202349091D0860FFF70CF802F00200DE
:101A000018B102201E49086003E002201C49091D8C
:101A10000860FEF7FFFF012019490860FEF7FAFF92
:101A200001201749091D0860FEF7F4FF02F00100CC
:101A300018B102201249086003E002201049091D74
:101A40000860FEF7E7FF01200D490860FEF7E2FF9E
:101A500001200B49091D0860FEF7DCFF0220084940
:101A60000860FEF7D7FF012005490860FEF7D2FFA6
:101A700001200349091D0860FEF7CCFF00BD0000EE
:101A8000100C014008B50121082000F07FFD40F254
:101A90002320ADF8000010208DF8030003208DF8FE
:101AA000020069461548FFF709FE40F2232113485A
:101AB000FFF7DAFE3620ADF8000010208DF80300A5
:101AC00003208DF8020069460D48FFF7F7FD362127
:101AD0000B48FFF7C9FE2020ADF8000010208DF85C
:101AE000030003208DF8020069460548FFF7E6FD74
:101AF00020210448FFF7B8FE08BD0000000C01409B
:101B0000000801400018014070B504460D4602E08F
:101B1000642002F04BF900F00BF80028F8D10348DC
:101B20000480857000F086F870BD00006C01002014
:101B300038B5002401250121042000F027FD0121F2
:101B4000084600F023FD01213248FFF743FEE80379
:101B5000ADF8000010208DF8030003208DF802007E
:101B600069462D48FFF7AAFD1020ADF80000282097
:101B70008DF8030003208DF8020069462648FFF720
:101B80009DFD04210020FFF779FD10202349086006
:101B90000020087108204871002088710846FFF76E
:101BA00023FD0A201E490870022048700320887017
:101BB0000020C870084600F0FDF9002019490860AF
:101BC0001949C1F8100102E0642002F0EFF815484D
:101BD000AC3800680028F7D14FF4E13003F0B0FBD7
:101BE000012010490860282002F0E0F8052407E0F1
:101BF00046220EA10EA002F04BFC08B9002504E01D
:101C00002000A4F10101CCB2F2D100BF04B901253A
:101C1000284638BD0002300000080140780100204D
:101C200080010020BC012142000021424F4B0000F6
:101C30004154000030B585B000250021072003F095
:101C4000FFFB012003F0E0FB00BF524800680028C2
:101C5000FBD101204F49AC310860282002F0A6F8E2
:101C600000204D4908704D480088040A4B4805780B
:101C70002B4622464AA1684601F046FA02E00A20B5
:101C800002F094F864224BA1684602F001FC00289F
:101C9000F5D142480379827847A1684601F034FAC9
:101CA00002E00A2002F082F8322242A1684602F0E5
:101CB000EFFB0028F5D13948C27843A1684601F00E
:101CC00023FA02E00A2002F071F8322239A16846B4
:101CD00002F0DEFB0028F5D1304882793EA168464B
:101CE00001F012FA02E00A2002F060F8322231A17B
:101CF000684602F0CDFB0028F5D12848C2793AA108
:101D0000684601F001FA02E00A2002F04FF83222A0
:101D100028A1684602F0BCFB0028F5D11F48427993
:101D200034A1684601F0F0F902E00A2002F03EF822
:101D3000322220A1684602F0ABFB0028F5D1002337
:101D4000072230A1684601F0DFF902E00A2002F024
:101D50002DF8322217A1684602F09AFB0028F5D12F
:101D60000C49AC310860282002F020F800BF094877
:101D700000680028FBD12749088001200649087027
:101D80000021072003F05CFB0120FEF71BFE05B0DD
:101D900030BD000010012142840100206C010020B0
:101DA00041542B414444523D253032782C25303269
:101DB000780000004F4B000041542B574C524154C7
:101DC000453D25642C25640041542B54504F574504
:101DD000523D25640000000041542B43574D4F44B1
:101DE000453D25640000000041542B544D4F4445AF
:101DF0003D25640041542B574C54494D453D2564C5
:101E00000000000041542B554152543D25642C25BF
:101E100064000000D800002070B5002600241E4891
:101E2000008800F40040002834D01B480088C0F32C
:101E30000E040020194908551749088018A000F021
:101E400065F81AA11548FEF7DEF90546687800EB3B
:101E500080004006000E16490870A87800EB80004C
:101E60004006000E487013A10C48FEF7CCF910B1E3
:101E700000201149086011A10848FEF7C4F910B10B
:101E800001200D490860322001F090FF21460348EF
:101E9000FEF7A2F970BD0000D80000206C060020FB
:101EA0004F4B2C5265636569766500004600000063
:101EB000AC0000206F6E0000948121426F666600C6
:101EC00010B50D48006880B90C48807902280CD004
:101ED00002200B4908700BA000F018F8C82001F090
:101EE00065FF4FF4967001F061FF0120044908700E
:101EF000FFF792FF10BD0000100121426C0100208D
:101F0000840100203137303433310000F0B589B01E
:101F10000546202101A8FEF75FF900241D48C0797D
:101F200020B929461CA003F08DF931E01948C07989
:101F300001282DD11A48008886B21A480778320A3B
:101F40002046611C8CB201A90A542046611C8CB247
:101F500001A90E5401A80755002405E0295DE01CE5
:101F600001AA1154601C84B2042CF7D300240DE0A4
:101F700000BF40210C4800F0BFFF0028F9D001A8A5
:101F8000015D094801F085F8601C84B2072CEFD38D
:101F900009B0F0BD6C01002025730D0A000000009F
:101FA0008C010020900100200048004000BFFEE7A7
:101FB0007047000070B5002100230F22C47804B3DD
:101FC000154C246804F4E064C4F5E064210AC1F10E
:101FD0000403CA40447804FA03F18478144021438E
:101FE00009010E4C0678A155047804F01F05012460
:101FF000AC4005786D11AD0005F1E025C5F8004154
:1020000009E0047804F01F050124AC40044D067873
:10201000761145F8264070BD0CED00E000E400E0CC
:1020200080E100E070B50646002415E004F1B0013F
:10203000C8B200F094F8102000F091F8002000F0F1
:102040008EF8002504E0304600F099F8681CC5B20F
:10205000802DF8DB601CC4B2082CE7DB70BD0000EB
:1020600008B510208DF8030003208DF80200ADF8AC
:1020700000000848806940F0080006498861694608
:102080000548FFF71BFBBDF800100348FFF7ECFB0A
:1020900008BD000000100240000C014010B5FFF721
:1020A000DFFF052001F082FE8D2000F058F810209F
:1020B00000F055F8002000F052F8102000F04FF822
:1020C000402000F04CF8812000F049F87F2000F01B
:1020D00046F8A12000F043F8C82000F040F8A62000
:1020E00000F03DF8A82000F03AF83F2000F037F863
:1020F000D32000F034F8002000F031F8D52000F0B3
:102100002EF8F02000F02BF8D92000F028F87820E5
:1021100000F025F8DA2000F022F8122000F01FF875
:10212000DB2000F01CF8202000F019F8202000F03F
:1021300016F8022000F013F8A42000F010F8AF20E9
:1021400000F00DF80020FFF76DFF8D2000F007F87C
:10215000142000F004F8052001F028FE10BD00B5A1
:102160000346FFF785FB7820FFF7B6FB0020FFF75B
:10217000B3FB1846FFF7B0FBFFF794FB00BD00B5BB
:102180000346FFF775FB7820FFF7A6FB4020FFF71B
:10219000A3FB1846FFF7A0FBFFF784FB00BD000080
:1021A0001FB50020009001900290039001246B461F
:1021B00022020CA113A0FEF757FF60B9019A91B259
:1021C0000098FFF7B3F94FF4FA7001F0EFFD68469D
:1021D000FEF70FFF002414B1012004B010BD002051
:1021E000FBE700004937386E46316B533169337A6B
:1021F000564F4250733843617131464B4E45303D26
:102200000000000035343033333236323500000000
:102210007FB504460D460020009001900290039087
:1022200017A0008820800020009001900290039069
:1022300014480078482807D054280BD12A4612A108
:10224000684600F061FF06E02A4614A1684600F0E7
:102250005BFF00E000BF00BF69462046FDF7C7FFF7
:1022600012A12046FDF7C3FF0020009001900290CC
:1022700003902046FDF7D9FFC0B204B070BD000046
:102280007B000000A90000202254656D706572611A
:1022900074757265223A2564000000002248756D4D
:1022A0006964697479223A25640000007D000000A9
:1022B00030B59FB005460C467C216846FDF78CFF83
:1022C00010A12846FDF7CCFF7C216846FDF784FF6E
:1022D0000D4800784D2805D122460CA1684600F033
:1022E00013FF00E000BF00BF69462846FDF77FFFEF
:1022F0007C216846FDF770FF2846FDF796FFC0B2C7
:102300001FB030BD23400000A90000207265636546
:10231000697665722325730070B5A6B00646002065
:10232000229023902490259000240025802102A84B
:10233000FDF752FFC8211548FDF74EFF0020144954
:102340000860314602A8FFF763FF0446E4B122A803
:1023500003230022214600900EA0FEF718FF98B933
:1023600008E002A8415D239A501C239022988154D2
:10237000681C05B2A542F4DB239A91B22298FFF7BC
:10238000D5F822A8FEF735FE26B070BDFE0C002061
:1023900058010020353430333332363235000000F6
:1023A00070B5A4B006460020209021902290239082
:1023B00000240025782102A8FDF70EFFC82115484A
:1023C000FDF70AFF002014490860314602A8FFF714
:1023D0006FFF0446E4B120A80523002221460090A7
:1023E0000EA0FEF7D4FE98B908E002A8415D219A3C
:1023F000501C219020988154681C05B2A542F4DB42
:10240000219A91B22098FFF791F820A8FEF7F1FDEC
:1024100024B070BDFE0C002058010020353430334C
:102420003332363235000000704700002DE9F043AA
:1024300081460E4617469846202E01DB7F2E00DD92
:102440007F26002439E0002533E01E4800EB06100B
:10245000405D204100F0010030B108EB0502391960
:10246000484602F005F906E008EB0502391989F043
:10247000010002F0FDF8134800EB061105F1080019
:10248000085C204100F0010040B108EB050238195A
:1024900000F10801484602F0EBF808E008EB0502FD
:1024A0003B1903F1080189F0010002F0E1F8681C12
:1024B000C5B2082DC9DB601CC4B2082CC3DBBDE863
:1024C000F0830000445500082DE9F04F8DB083469D
:1024D00014461D46DDF85CA00AF101010A2002F055
:1024E000CBFDCDE90001FEF76AF822462B46CDE987
:1024F0000201FDF765FF8046FEF78EF806460B46A3
:102500000AF1010016993246CDE9010A009104A8AA
:1025100001F066FB04A95846DDE9182300F003F832
:102520000DB0BDE8F08FF0B506460C4617461D46C7
:1025300007E014F8011B2B463A463046FFF776FFBA
:10254000083520780028F4D1F0BD000029B1064AF2
:10255000D2690243044BDA6104E0034AD269824340
:10256000014BDA61704700000010024029B1064AB1
:1025700012690243044B1A6104E0034A1269824360
:10258000014B1A61704700000010024029B1064A51
:1025900092690243044B9A6104E0034A92698243C0
:1025A000014B9A61704700000010024029B1064AB1
:1025B000D2680243044BDA6004E0034AD2688243E3
:1025C000014BDA60704700000010024030B5002176
:1025D0000022002400232D4D6D6805F00C0121B16F
:1025E000042905D0082923D105E0294D056022E002
:1025F000274D05601FE0254D6D6805F47012234DD1
:102600006D6805F48034022505EB92421CB9214D1A
:10261000554305600BE01D4D6D6805F400351DB197
:102620001C4D5543056002E0194D5543056002E01D
:10263000174D056000BF00BF144D6D6805F0F00137
:102640000909154D6B5C0568DD4045600F4D6D68EF
:1026500005F4E061090A104D6B5C4568DD4085605A
:102660000A4D6D6805F46051C90A0B4D6B5C4568F5
:10267000DD40C560054D6D6805F44041890B074D8F
:102680006B5CC568B5FBF3F5056130BD0010024019
:1026900000127A0000093D00C4000020D400002090
:1026A00010B515A11548FDF7AEFD48B914A11348A2
:1026B000FDF7A9FD20B913A11048FDF7A4FD50B105
:1026C000C8210E48FDF788FD012010490860002050
:1026D0000F4908600EE00E480068401C0C49086075
:1026E00008460068962805D100200860C8210348E4
:1026F000FDF772FD10BD00004F4B0000FE0C0020E6
:102700003E00000072656164790000005C010020F9
:102710005801002010B524480068962806D10020F2
:1027200021490860C8212148FDF756FD204800785E
:10273000002811DD1D481C490968405C1D491E4ADE
:10274000126888541C480068401C1B4908601848DF
:102750000078401E164908701348006803281DDDE4
:1027600011480068801E1149085CB8B90E4800681D
:10277000401E085C90B908460B490968405C002877
:102780000CDD14210B48FDF727FD084806490968B0
:10279000405C07490870002007490860024800684B
:1027A000401C0149086010BD58010020FE0C0020AB
:1027B00050010020C60D0020640100207047000079
:1027C00038B50446054804600020034680224021B5
:1027D0000090FEF7ECFBFFF761FC38BD68010020BC
:1027E00030B5002419E004F1B001C8B2FFF7B7FC1E
:1027F0001020FFF7B4FC0020FFF7B1FC002508E033
:102800000749096801EBC411485DFFF7B8FC681C73
:10281000C5B2802DF4DB601CC4B2082CE3DB30BDF4
:10282000680100202DE9F04105460F46144622E0DC
:10283000C8211348FDF7D0FC002012490860284643
:10284000FDF7F3FC06463146284600F027FCA0B20F
:1028500001F0ACFA0C480068C0430C49C1F8A4016F
:102860000B480068012803D100200949086003E0F3
:10287000C82001F09BFADBE700BFBDE8F081000053
:10288000FE0C002058010020A4812142008021423A
:102890005C01002010B500F001F810BD0CB500205F
:1028A000019000903348006840F48030314908605E
:1028B00000BF3048006800F4003000900198401CD0
:1028C0000190009818B90198B0F5A06FF1D129488E
:1028D000006800F4003010B10120009001E00020F9
:1028E00000900098012843D12348006840F0100070
:1028F000214908600846006820F003000860084687
:10290000006840F0020008601A48406819494860B1
:102910000846406848600846406840F48060486067
:102920000846406820F47C1048600846406840F43F
:10293000E81048600846006840F08070086000BFFA
:102940000C48006800F000700028F9D00948406881
:1029500020F00300074948600846406840F0020044
:10296000486000BF0348406800F00C000828F9D117
:102970000CBD00000010024000200240042808D1D5
:102980004FF0E021096941F004014FF0E0221161AC
:1029900007E04FF0E021096921F004014FF0E02247
:1029A000116170477047000010B51348006840F08F
:1029B00001001149086008464068104908400E4966
:1029C0004860084600680E4908400B490860084600
:1029D000006820F4802008600846406820F4FE006B
:1029E00048604FF41F008860FFF754FF4FF000600D
:1029F0000449086010BD0000001002400000FFF80C
:102A0000FFFFF6FE08ED00E010B501F0ADF9FEF7AE
:102A10008FF9FEF793FA4FF4E13002F03BFCFFF739
:102A200031F817210020FFF76FF81548FFF7C8FEAF
:102A300000231A4613A10120FFF775FD0023102281
:102A400014A10120FFF76FFDFFF7CAFEFEF72EF875
:102A500000231A4613A10120FFF765FD0023102271
:102A600010A10120FFF75FFDFFF7BAFEFEF732FD70
:102A7000FEF778FC482141F2883000F0FBF810BDE9
:102A8000A001002068656C6C6F205E2D5E202A2AF4
:102A9000000000006C6F726120696E6974206F6BBA
:102AA00000000000202020202020202020202020A6
:102AB000202020202000000010B50121064800F051
:102AC0006BF840B10121044800F057F80348006852
:102AD000401C0249086010BD002C0140000000208D
:102AE00010B50121094800F057F868B101210748E5
:102AF00000F043F80648008840F40040044908808C
:102B00000021024800F03CF810BD00000014004015
:102B1000D80000207FB505460C4601212020FFF794
:102B200015FDADF80450ADF800400020ADF80600EA
:102B3000ADF8020069460E4800F04AF8012211463D
:102B40000B4800F03AF837208DF80C0000208DF883
:102B50000D0002208DF80E0001208DF80F0003A853
:102B6000FFF728FA0121024800F00AF87FBD0000B3
:102B700000140040CA4302827047CA430282704771
:102B800021B1028842F00102028004E002884FF67F
:102B9000FE731A400280704730B5024600200023C1
:102BA0000024158A05EA0103958905EA010413B199
:102BB0000CB1012000E0002030BD1AB183890B4325
:102BC000838102E083898B438381704781847047CE
:102BD000002202881D4B98420ED01D4B98420BD00C
:102BE000B0F1804F08D01B4B984205D01A4B984249
:102BF00002D01A4B984204D14FF68F731A404B887B
:102C00001A43174B984207D0164B984204D04FF600
:102C1000FF431A40CB881A4302808B8883850B8838
:102C200003850A4B98420BD0094B984208D00E4BB3
:102C3000984205D00D4B984202D00D4B984201D1DD
:102C40000B7A03860123838270470000002C014029
:102C5000003401400004004000080040000C004027
:102C600000100040001400400040014000440140BA
:102C7000004801407FB505460C460121C802FFF718
:102C800085FC681E80B2ADF80800601E80B2ADF809
:102C900004000020ADF80600ADF80A008DF80C0025
:102CA00001A90F48FFF794FF19208DF800000120BB
:102CB0008DF8030000208DF801008DF802006846B1
:102CC000FFF778F901210648FFF754FF012211466A
:102CD0000348FFF772FF01210148FFF751FF7FBD55
:102CE000002C014010B540F22551284800F011F9A0
:102CF000D8B1264800F0C8F9C4B22548254909686A
:102D0000445425480078012802D1FFF7C9FC07E0A8
:102D10002148007820B9FFF7FDFC01201F490880F9
:102D200040F22551194800F07EF81A480068C01E8C
:102D30001749085C202812D116480068801E085CDC
:102D400002280CD113480068401E085C38B90846B8
:102D500010490968405C10B90120114908600D480C
:102D60000068801E0A49085C64280ED10948006882
:102D7000401E085C012808D1084606490968405CE5
:102D8000602802D100200649086010BD00380140CB
:102D9000FE0C0020580100200400002060010020EB
:102DA0005401002070B5302540F22551154800F03F
:102DB000B0F8F8B1134800F067F9C4B212480088BF
:102DC00000F40040B0B910480088B0F5806F12DA06
:102DD00000210E48FFF7FAFE0B48008818B90121C0
:102DE0000A48FFF7CDFE08490888411C064A1180B1
:102DF00007490C5405E00448008840F400400249AB
:102E0000088070BD00480040D80000200014004039
:102E10006C06002001F40072B2F5007F00D100BF03
:102E2000CA430280704710B50022002340F66A149E
:102E3000A14200D100BF0A1201249440A3B2DC4396
:102E4000048010BD21B1828942F40052828104E0E5
:102E500082894DF6FF731A408281704710B504468F
:102E60002048844209D101218803FFF79FFB0021FC
:102E70004FF48040FFF79AFB32E01B48844209D1AF
:102E800001214804FFF772FB00214FF40030FFF7E7
:102E90006DFB25E01548844209D101218804FFF724
:102EA00065FB00214FF48020FFF760FB18E010481D
:102EB000844209D10121C804FFF758FB00214FF4D7
:102EC0000020FFF753FB0BE00A48844208D10121A0
:102ED0000805FFF74BFB00214FF48010FFF746FB7E
:102EE00010BD000000380140004400400048004090
:102EF000004C00400050004002460020B1F5007F29
:102F000000D100BF13880B400BB1012000E000206E
:102F1000704770B50246002400230025002040F6CB
:102F20006A16B14200D100BFC1F3421501F01F0380
:102F3000012606FA03F3012D02D19689334006E0FB
:102F4000022D02D1168A334001E0968A33400C12DA
:102F5000012606FA04F41688344013B10CB101209E
:102F600000E0002070BDF0B50346002400260025D7
:102F7000002040F66A17B94200D100BF1846C1F3DD
:102F8000421401F01F06012707FA06F5012C01D1B2
:102F90000C3004E0022C01D1103000E014301AB1E2
:102FA00007682F43076002E00768AF430760F0BD82
:102FB0002DE9F04786B005460E460024A24600BF24
:102FC000A1460027B08900B100BF2F462C8A4CF6DD
:102FD000FF700440F08804432C82AC894EF6F31055
:102FE0000440B08831890843718908430443AC81A7
:102FF000AC8A4FF6FF400440B0890443AC8201A87C
:10300000FFF7E4FA1F48874202D1DDF810A001E083
:10301000DDF80CA0A88900F4004040B10AEBCA001A
:1030200000EB0A1031684900B0FBF1F807E00AEB49
:10303000CA0000EB0A1031688900B0FBF1F8642087
:10304000B8FBF0F004012009642101FB1089A88974
:1030500000F4004040B1322000EBC900B0FBF1F0B9
:1030600000F00700044308E0322000EB091064215F
:10307000B0FBF1F000F00F0004432C8106B0BDE876
:10308000F08700000038014001468888C0F308003E
:103090007047C1F3080282807047000070B5044693
:1030A0000D4640210A48FFF7B5FE00260CE02178C6
:1030B0000748FFF7EEFF00BF40210548FFF71CFF60
:1030C0000128F9D1641C761CAE42F0DB70BD000013
:1030D0000038014000BFFEE770B50346002400251C
:1030E00000BF01F07F05C90909B145F08005104610
:1030F000561CB2B21D54641C09B1052CF1DB501EE4
:1031000080B2024670BD00000FB4084B10B504A990
:1031100002AA039800F070F9044602A9002000F00A
:1031200002FD204610BC5DF814FB0000273B0008A0
:1031300037B514460846064B6A46214600F05CF94E
:1031400004466946002000F0EEFC20463EBD00002B
:10315000273B0008490050EAC12018BF04204A0D4F
:1031600018BF40F0010040F2FF72B2EB515F08BFA0
:1031700040F00200012808BF052070472DE9F0410A
:103180004F1E00EBC7010446D1E9000115461E465B
:1031900037F006020DD02A463346FDF711F97F1E9F
:1031A00004EBC703D3E90023FDF763F837F0060209
:1031B000F1D1022F25D0042F13D0062F18BFBDE860
:1031C000F0812A463346FDF7FBF8D4E90A23FDF7E0
:1031D00050F82A463346FDF7F3F8D4E90823FDF703
:1031E00048F82A463346FDF7EBF8D4E90623FDF705
:1031F00040F82A463346FDF7E3F8D4E90423FDF707
:1032000038F82A463346FDF7DBF8D4E90223FDF708
:1032100030F82A463346FDF7D3F8D4E90023BDE859
:10322000F041FDF726B80000002213461046014980
:10323000FDF738B90000F03FFDF71BB80022134638
:1032400010461146FDF72EB940F2013200204FF032
:10325000E041FDF7F4BA0000024A00201107FDF733
:10326000EEBA000001FDFFFF02E008C8121F08C10E
:10327000002AFAD170477047002001E001C1121FF7
:10328000002AFBD170470000014908607047000028
:103290009C0100202DE9FF5FDDE90220010DDDF832
:1032A00038B0024318D044F61050A1F2FF31414328
:1032B0000D140F98012820D0A5EB0B00401C5FEAED
:1032C000000A4FF00004474EDFF81C91A04650461C
:1032D00016D5CAF1000728E00F98012443A201285F
:1032E00008D0002100980F9BC0E90021C0E90243EB
:1032F000BDE8FF9F6FEA0B01F4E7CBF10000DEE7CA
:10330000074612E0F80707D02246334640464946B2
:10331000FDF756F880468946224633461046194640
:10332000FDF74EF804460E467F10002FEAD1DDE986
:103330000201BAF1000F42464B4602DAFDF740F8AF
:1033400001E0FDF7AFF804460E460022284BFDF7DA
:1033500089F903D84FF0FF30014607E00022254BE2
:1033600020463146FCF785FFFDF780FA102409E07E
:10337000002C0ADB0A220023FDF7A2F9019B303260
:103380001A55641E50EA0102F2D1641C019AC4F17C
:10339000110314440F9A012A03D0012208430DD1CE
:1033A0000AE0084304D000204FF0110B0F9080E793
:1033B000A3EB0B056D1E0DE05B4504DD4FF0000235
:1033C00005F1010504E003DA4FF00002A5F1010563
:1033D000002AECD000980F99C0E90231C0E90045FD
:1033E00086E70000000024400000F03F30000000AD
:1033F0000000F0430000E03F2DE9FF4F95B09B46F1
:103400008946064600250FE2252877D10024274665
:10341000F84A0121059400E0044316F8013F203BDF
:1034200001FA03F01042F7D130782A2811D06FF05A
:103430002F033078A0F13002092A16D8059A44F0FB
:10344000020402EB820203EB42021044761C059058
:10345000EFE759F8042B0592002A03DA504244F4AE
:103460000054059044F00204761C30782E2816D1C2
:1034700016F8010F44F004042A280DD06FF02F0233
:103480003078A0F13003092B09D807EB870302EB52
:103490004303C718761CF3E759F8047B761C307891
:1034A0006C280FD006DC4C2817D068280DD06A286D
:1034B00014D104E0742810D07A280FD10DE044F420
:1034C00000140AE044F4801401E044F440147278DB
:1034D000824202D104F58014761C761C307866286E
:1034E0000BD013DC582877D009DC002875D045288C
:1034F000F6D04628F4D047281AD19DE118E0632879
:1035000035D0642879D0652812D195E1702873D020
:1035100008DC6728F1D069286FD06E280DD06F289D
:1035200006D1B5E073282CD0752875D0782874D0D2
:103530005A46179990476D1C75E1C4F30250022852
:1035400009D003280DD0D9F8001004280DD00D6043
:1035500009F1040967E1D9F80010EA17C1E900523E
:10356000F6E7D9F800100D80F2E70D70F0E719F8D2
:10357000041B8DF8001000208DF80100EA460120A0
:1035800003E059F804AB4FF0FF3061074FF0000142
:1035900002D40DE008F101018846B9420FDA8045F6
:1035A000F8DB1AF808100029F4D108E008F101014D
:1035B00088468142FADB1AF808100029F6D10598EE
:1035C0005B46A0EB080721463846179A00F094FAAC
:1035D000284400EB080507E04DE029E10DE01AF86A
:1035E000010B5A4617999047B8F10108F7D25B468C
:1035F00021463846179A13E142E00A220092C4F3AA
:1036000002524FF0000A022A08D059F804CB032ACC
:103610004FEAEC710AD00DE029E02AE009F1070138
:1036200021F00702F2E802C1914609E00FFA8CFC92
:103630004FEAEC71042A03D14FFA8CFC4FEAEC718B
:10364000002907DA0A460021DCF1000C61EB0201D7
:103650002D2202E0220504D52B228DF80420012220
:1036600003E0E20701D02022F7E7904659E00A2163
:1036700002E010220DE010214FF0000A00910BE053
:1036800010224FF0000A44F004040827009203E0DF
:1036900008224FF0000A0092C4F30252022A05D019
:1036A00059F804CB0021032A08D009E009F10701E9
:1036B00021F00702F2E802C1914605E01FFA8CFCF6
:1036C000042A01D10CF0FF0C4FF00008220728D586
:1036D000702806D0009B83F0100353EA0A0305D03C
:1036E0000EE040228DF80420012208E05CEA01028D
:1036F00006D030228DF804208DF805000222904675
:10370000009B83F0080353EA0A030AD15CEA010232
:1037100001D1620705D530228DF804204FF0010851
:103720007F1E582804D034A003900EA802900DE00C
:1037300036A0F9E753466046009AFCF7C1FF84467D
:103740000398825C0298401E029002705CEA0100BD
:10375000F0D1029806A9081A00F1200A600702D5E4
:1037600024F4803400E00127574502DDA7EB0A006E
:1037700000E0002000EB0A01009005984144401A47
:103780000590E00306D45B462146179A059800F0A1
:10379000B3F90544002706E001A85A46C05D179911
:1037A00090476D1C7F1C4745F6DBE0030CD55B465C
:1037B0002146179A059800F09FF9054404E030204F
:1037C0005A46179990476D1C0099481E0090002991
:1037D000F5DC08E0029802995A460078491C0291EB
:1037E000179990476D1CBAF10001AAF1010AF1DCAA
:1037F00065E10000092801003031323334353637B5
:10380000383961626364656600000000303132332C
:1038100034353637383941424344454600000000CC
:1038200000F058F90544761C307800287FF4ECADA0
:1038300019B02846BDE8F08F620700D4062709F1C9
:10384000070222F0070CFCE80223E14603F00048DF
:103850005FEA080C02D00FF2702C0DE05FEA045C06
:1038600002D50FF2682C07E05FEAC47C02D00FF2A9
:10387000602C01E0AFF2700C4FF0FF3823F00043F2
:10388000CDF850C065280CD006DC452809D0462864
:103890001DD047283DD13DE0662818D067287ED14D
:1038A00038E00021112F01DB112000E0781CCDE968
:1038B000000106A90EA8FFF7EDFCDDE90F010E9A45
:1038C00003910021009207F1010A04914DE04FF0AD
:1038D00000400097CDE9011006A90EA8FFF7DAFC19
:1038E000DDE90F0203920E9B11990022DDF80CA076
:1038F0000093049211B9791C00EB010AB7EB0A009E
:1039000004D4C0F1FF3007F1010A0490AAEB0700CC
:10391000019044E0012F00DA01270021112F01DD81
:10392000112000E03846CDE9000106A90EA8FFF7F6
:10393000B1FCDDE90F010E9A039100210491009280
:10394000BA4621070CD40399514500DA8A46BAF1E8
:10395000010F05DD009AAAF10101515C302908D060
:10396000B84202DA10F1040F06DA0121CDE90110A4
:1039700015E0AAF10101E9E7002805DC04990144FA
:103980000491AAEB000102E0411C514500DD8A468A
:103990000499401A401C01904FF00040029020070B
:1039A00004D40198504501DBCDF8048000208DF847
:1039B0004F0002980DF14F07B0F1004F25D02B209A
:1039C0000E9002984FF0020800280CDA4042029054
:1039D0002D200E9007E00A210298FCF75BFE3031A3
:1039E000029007F8011DB8F10001A8F10108F2DC0E
:1039F00002980028EFD1791E0E980870307800F0F8
:103A0000200040F0450007F8020D12A8C01B00F18D
:103A100007081498007800B1012000EB0A01019812
:103A200001EBE07105984144401A401E0590E00307
:103A300006D45B462146179A059800F05DF80544C8
:103A40001498007818B15A46179990476D1CE003F6
:103A500024D55B462146179A059800F04DF8054499
:103A60001CE00498002807DBDDE90301884203DD40
:103A70000098405C179901E0179930205A4690470A
:103A8000049805F10105401C04900198401E019026
:103A900004D12E205A46179990476D1CBAF10001A7
:103AA000AAF1010ADDDC05E017F8010B5A46179967
:103AB00090476D1CB8F10001A8F10108F4DC5B46E9
:103AC0002146179A0598ABE62D0000002B00000058
:103AD000200000002DE9F041044600251E4617464F
:103AE000880404D405E039462020B0476D1C641ECC
:103AF000F9D52846BDE8F0812DE9F04104460025BE
:103B00001E469046C80301D5302700E020278804D0
:103B100004D505E041463846B0476D1C641EF9D512
:103B20002846BDE8F0810A68531C0B60107070478E
:103B300010B5FDF75DF800202549487025488088BC
:103B4000002813DD244880882449098888423DD014
:103B50001F484079012839D11F4880881F490880B3
:103B60001C488088401E1B4988802FE019488088A7
:103B700000282BDC17484088002807DD15484088BE
:103B8000401E144948803B2088801FE0114840882F
:103B900060B910480088002808DD3B200D49888066
:103BA000488008460088401E08800FE009480088C9
:103BB00060B90848408848B90648808830B9002074
:103BC000034948710120887101F06AFA10BD0000B4
:103BD000440100202801002030010020260100209F
:103BE0002DE9FE43064614461D46DDE90B890A9F72
:103BF00022462B4630468DE8800300F005F830461B
:103C000001F0BCFABDE8FE832DE9F84F04461546E5
:103C10001E46DDE90AB9DDF830A000210846691A20
:103C200076EB000005DA00226D4262EB0606012009
:103C300000E0002008B1012000E000200090D14504
:103C400028D2AAEB090A02E0302004F8010B5FEA4F
:103C50000A00AAF1010AF7D113E00A22002328463C
:103C60003146FCF781FA3020101804F8010B4FF0B0
:103C70000A024FF0000328463146FCF775FA054664
:103C80000E465FEA0900A9F10109E6D12E2004F8E9
:103C9000010B3CE0A9EB0A09B9F1000F17D007E0CE
:103CA0000A22002328463146FCF75EFA05460E46F6
:103CB0004846A9F101090128F2D86F1D46F100011B
:103CC0000A2200233846FCF74FFA05460E46BAF1A1
:103CD000000F1CD013E00A22002328463146FCF7CF
:103CE00043FA3020101804F8010B4FF00A024FF08D
:103CF000000328463146FCF737FA05460E465FEAD0
:103D00000A00AAF1010AE6D12E2004F8010B00BF37
:103D10000A22002328463146FCF726FA30201018E4
:103D200004F8010B4FF00A024FF000032846314619
:103D3000FCF71AFA05460E46002185EA010071409B
:103D40000843E5D10098012803D12D2004F8010B88
:103D500005E0BBF1010F02D12B2004F8010B00207C
:103D60002070BDE8F88F000010B56FF00400FEF77A
:103D700005FE0A4800680A49B0FBF1F009490870DD
:103D80000846007800EB4001C1EBC0104FF6FF7110
:103D900001EAC0000449088010BD0000B000002006
:103DA00000127A004C0100204E0100200146114A09
:103DB00012884A434FF0E0235A6100229A611A4662
:103DC000126942F001021A6100BF4FF0E02210694F
:103DD00000F001021AB100F48032002AF5D04FF051
:103DE000E022126922F001024FF0E0231A61002262
:103DF0009A6170474E0100200146114A12784A43E9
:103E00004FF0E0235A6100229A611A46126942F08B
:103E100001021A6100BF4FF0E022106900F00102B8
:103E20001AB100F48032002AF5D04FF0E022126976
:103E300022F001024FF0E0231A6100229A617047DC
:103E40004C01002010B5284800880A2190FBF1F0B1
:103E5000303026490870244800880A2190FBF1F28E
:103E600001FB12003030214948703A2088701E480A
:103E700040880A2190FBF1F030301C49C8701A4884
:103E800040880A2190FBF1F201FB12003030174903
:103E900008713A204871144880880A2190FBF1F09B
:103EA000303012498871104880880A2190FBF1F265
:103EB00001FB120030300D49C871FCF799FE002358
:103EC0001A460B490120FEF72EFBFEF789FC322033
:103ED000FFF76CFF0023302204490120FEF723FB8B
:103EE000FEF77EFC10BD000028010020EC0C002035
:103EF000E30C00207FB504460322B049204600F0C1
:103F0000F5F928B10322AE49204600F0EFF958B97F
:103F10000322AC49204600F0E9F9A8B30322AA49DC
:103F2000204600F0E3F978B30622A849204600F0C5
:103F3000DDF948B30120A649C8700322A5492046EF
:103F400000F0D4F930B1A4480178204600F0F8F927
:103F50009F4908700322A149204600F0C7F930B1FB
:103F60009D480178204600F0EBF9994948700322FA
:103F70009B49204600F0BAF930B1974801782046B5
:103F800000F0DEF99249887003229649204600F03D
:103F9000ADF9002842D003229349204600F0A6F94B
:103FA00000283BD003229149204600F09FF918B128
:103FB00001208F49C870087103228E49204600F005
:103FC00095F920B100208A49C870012008710322A8
:103FD0008049204600F08AF930B17F4801782046B8
:103FE00000F0AEF98249087003227C49204600F0B7
:103FF0007DF930B178480178204600F0A1F97C497C
:10400000487003227649204600F070F930B17248BA
:104010000178204600F094F975498870734920466C
:10402000FCF7F1F818B101207349087088717149E3
:104030002046FCF7E8F820B100206F490870012005
:10404000887103226349204600F050F9E0B1012055
:1040500069494870487160480178204600F070F95D
:10406000654988705C480078FCF79CFA05460B4669
:10407000002020210090CDE901012A460390012073
:10408000FEF722FAFEF7ACFB03225449204600F06B
:104090002DF9E0B101205849487048714E48017827
:1040A000204600F04DF95449C8704B480078FCF7A1
:1040B00079FA0546202000220092CDE901202A4607
:1040C0000B4603900120FEF7FFF9FEF789FB032260
:1040D0004349204600F00AF9E8B1012046494870FA
:1040E00048713D480178204600F02AF9424908719C
:1040F00039480078FCF756FA05460B464020202147
:1041000000220092CDE9012103902A460120FEF70A
:10411000DBF9FEF765FB3848407801284DD1364879
:1041200080780A2190FBF1F0303034490870324831
:1041300080780A2190FBF1F201FB120030302F4908
:1041400048703A2088702C48C0780A2190FBF1F022
:1041500030302A49C8702848C0780A2190FBF1F213
:1041600001FB12003030254908713A20487122487D
:1041700000790A2190FBF1F03030204988711E4807
:1041800000790A2190FBF1F201FB120030301B494B
:10419000C871002310220120FEF7C5F9FEF720FBAD
:1041A00015488078164908801348C078488012481E
:1041B000007988800120104948717FBD06010020E8
:1041C0000A0100200E01002012010020160100202B
:1041D00038010020FA0000203C010020FE000020F1
:1041E000020100201D01002021010020F20000201A
:1041F0003D010020F600002044010020F50C0020C5
:104200002801002010B52B480088012851D12A49E7
:104210002A48FBF7ECFF14212748FBF7DDFF27486E
:10422000FFF768FE26A12548FBF7EDFF48B12021E6
:104230002548FDF717FB0120FEF76EF81420FFF765
:10424000B5FD22A11D48FBF7DEFF48B120211E4825
:10425000FDF70AFB0020FEF75FF81420FFF7A6FD2C
:104260001CA11648FBF7CFFFE0B120211648FDF74F
:10427000F9FA1A4A1AA11B48FEF746FF0E491948D7
:10428000FBF7B5FF0020FEF747F81648FEF788F861
:104290001420FFF78BFD06201349087020210A48DF
:1042A000FDF7E2FA64210548FBF796FF002001497B
:1042B000088010BD60010020C60D0020050600200A
:1042C0006F70656E00000000000C0140636C6F733E
:1042D0006500000074657374000000001D0000207C
:1042E0002573000031000020090000202DE9F0476F
:1042F000074688461646002010490870002415E03D
:104300000025A94608E06019385C18F805108842B5
:1043100001D109F101096D1CB542F4DBB14504D1AD
:1043200006490C700120BDE8F087641C3846FBF795
:104330007CFFA042E4D80020F5E700003C0100200B
:104340002DE9F04F89B0824689460024A34600201B
:10435000089000BF01E0601CC4B2B9EB0400FAD4BD
:10436000A9EB04001AF800003928F4DCA9EB0400DA
:104370001AF800003028EEDB4FF0000B30E0584612
:10438000FCF710F907463A460B4600201E4900F09C
:1043900097F905460E46A9EB04011AF80110A1F1A0
:1043A0003000FCF7EEF82A463346CDE90001FCF771
:1043B00007F8CDE904010898FCF7F4F8CDE902010B
:1043C000DDE90423FBF755FFCDE90601FCF70BF906
:1043D000C0B208900BF1010000F0FF0B601CC4B2EA
:1043E000B9EB04000BD4A9EB04001AF8000039283B
:1043F00005DCA9EB04001AF800003028BFDA0898A1
:1044000009B0BDE8F08F00000000244010B500287E
:1044100021D0114B0022001F196803E0814203D80C
:104420000A4649680029F9D152B11368841A9C429E
:1044300004D1006818441060104602E0506000E0AB
:10444000186039B102680B1A934203D10B681A4401
:1044500002604968416010BD9401002070B50446B7
:1044600000250948008800F4004058B100200649A2
:104470000988C1F30E01054A505421461046FBF746
:10448000C2FE0546284670BDD80000206C060020FC
:104490002DE9F04104460E46154601270020184933
:1044A0000880FF2C0AD800BF1648008800F04000A2
:1044B0000028F9D01349091D0C8003E0214612A001
:1044C00000F0C0FECEB1C5B110E00A20FFF76EFCCF
:1044D0000B48008800F4004040B13046FFF7BEFFB3
:1044E00020B1012006490880002703E0681E80B241
:1044F0000500EAD100BF05B901273846BDE8F081C3
:10450000D80000200048004025730D0A000000007C
:1045100086B000BF2EA00068059000200190029098
:1045200003900490FEF770FAFCF77CFA0023302227
:1045300028A10120FDF7F7FFFEF752F94FF47A703A
:10454000FFF734FC00231A4625A10120FDF7EBFFFD
:104550000023102222A10120FDF7E5FF00232022E5
:104560001FA10120FDF7DFFF002330221CA1012045
:10457000FDF7D9FF0023402219A10120FDF7D3FF49
:10458000FEF72EF923E01B480068B0F57A7F05D1CD
:1045900001A8FCF7DFFD002016490860FFF732FE96
:1045A000FDF78EFC14491548FCF7D5FA144800783D
:1045B00012490870124840780F49087000F084FDD5
:1045C00000F0F4FDFFF73EFCC820FFF7EFFBDAE751
:1045D0000A14170073657276655F6F6B0000000048
:1045E00020202020202020202020202020202020CB
:1045F000200000000000002007000020060000202E
:10460000AC000020F0B50B30154D20F00701002460
:10461000144A0FE003688B420BD38B4205D95E1A14
:1046200043184768C3E9006700E04368136002C0AD
:1046300004E0021D10680028ECD12046002802D1B9
:10464000286808B10020F0BD064A07481060074AF4
:10465000121A22F00702C0E9002401202860D7E7DF
:104660009801002094010020E40D0020E00F0020BC
:1046700030B588B1CB08114C246804EBC3139B5CA4
:1046800001F007050124AC402343CC080B4D2D68F5
:1046900005EBC414A35410E0CB08084C246804EBC9
:1046A000C3139B5C01F007050124AC40A343CC0875
:1046B000024D2D6805EBC414A35430BD68010020E1
:1046C0002DE9F04D16460F4694B01C4621F00041EE
:1046D00023F00042002814BF4FF0010C4FF0000CF3
:1046E0000CEB470CFE4B0CEB03054FEA630C6545E6
:1046F0002BD3350018BF012505EB44051D44F94BAC
:104700009D4222D3F84B52EA060C02D09F4205D1BB
:1047100048B914B000201946BDE8F08D002808BF44
:104720004FF0000C01D04FF0010C0CEB470313F5D8
:10473000001F0AD8002E14BF4FF0010C4FF0000CE0
:104740000CEB440313F5001F07D914B0324623467F
:104750003946BDE8F04DFEF76FBDDFF890834FF0AE
:10476000000A002FB8BF424523DAE14B9A42A8BFA6
:104770004FF0020A1DDADC4B93421ADCDD4B03EBEF
:104780002253142B08DDC3F1340C26FA0CF303FA80
:104790000CFCB4450DD108E05EB9C3F1140C22FA4B
:1047A0000CF303FA0CFC944503D103F00103C3F1AD
:1047B000020A51EA00031BD1002C19DA002F18BF9E
:1047C000BAF1020F02D0BAF1010F07D00220FEF7B2
:1047D0005BFD14B0BDE8F04DFEF726BD0220FEF7EC
:1047E00053FDFEF721FD14B081F00041BDE8F08DCE
:1047F000330070D1424525D107F1804212F5801275
:1048000001BF00280020B84914B008BFBDE8F08DF2
:10481000B548884207DC002CA1BF1846214614B0D9
:10482000BDE8F08D07E0002CBFBF184684F00041C2
:1048300014B0BDE8F08DB0497944D1E9000114B05D
:10484000BDE8F08DDFF8A0C262452AD1002C24DA41
:1048500039B1414517D1002804BF002002461CD1C0
:1048600006E040B10220FEF70FFDFEF7EDFC0A4620
:10487000394600F0D7BA9D4A394614B0002062F399
:104880001E01BDE8F08D08DA14B03B46BDE8F04DDE
:10489000024600206146FBF705BE14B03946BDE86C
:1048A000F08D414517DAB4F1804F0CD0A4F10053DC
:1048B000B3F1FF530FD13B1E0DDB14B01946BDE819
:1048C000F04D00F035BC3B4614B00246BDE8F04D5B
:1048D0001946FBF775BD050027F000433AD1E1B159
:1048E000414537D1002F06DD002CA1BF00204146F5
:1048F00014B0BDE8F08D002F01DD002C1FDB002F70
:1049000016DA002C14DBBAF1010F4FF0000014BFCF
:1049100076497A4914B0BDE8F08DBAF1020F18BF9C
:10492000002F0CD0BAF1010F09D1002F07DA0BE0EC
:10493000002FB8BF002C0DDABAF1010F04D000200F
:1049400014B00146BDE8F08D14B000204FF00041D6
:10495000BDE8F08D4FF0010808EBE77CCDF814C0FE
:104960005CEA0A0C0DD0DFF898C162457EDDDFF805
:1049700094C1654B624512DD8B420ADB002C18DBCB
:1049800023E00120FEF780FC14B0BDE8F04DFEF7F7
:1049900055BC554A8A4202DC002C0ADC15E09942DB
:1049A00002DA002C11DA04E04F4B994219DD002C99
:1049B0000BDD0220FEF768FCFEF746FC4B4A14B004
:1049C00061F31E021146BDE8F08D0220FEF75CFC8B
:1049D000FEF742FC444A14B061F31E021146BDE8E2
:1049E000F08D00223946FBF7E5FC07460D466FF0D7
:1049F0000102FBF724FF4FF05532444BFBF7DDFC7F
:104A00003A462B46FBF7DCFC0022414BFBF7D5FC7A
:104A100080468B463A462B4610461946FBF7D0FC9B
:104A200042465B46FBF7CCFC88460E904FF0C042F6
:104A3000384B38462946FBF7C3FC83460091364A7B
:104A4000344B41460E98FBF7BBFC80460191334A3C
:104A5000334B38462946FBF7B3FC4246019BFBF734
:104A6000A9FC0D4602460B460C9000E011E05846AA
:104A70000099FBF7FEFB002788465A463846009B04
:104A8000FBF798FC2B460C9AFBF797FC024600F0CC
:104A900079B90020B1F5801F07DA3522284619467A
:104AA000FBF7CDFE05466FF0340000EB2150A0F27D
:104AB000FF300190C1F3130040F07F6141F040519D
:104AC000029118498842D8BF4FF0000B35DD1649D6
:104AD0008142C8BF4FF0010B2FDC4FF0000B25E0E7
:104AE000FFFF1F00FFFF0F000000F03F0000F07FFE
:104AF0000000404301FCFFFF941500000000F0FFA0
:104B00000000E0410000F043FFFFEF3F5555D53F67
:104B10000000E03F4715F73FFE822B6544DF5DF85C
:104B20000BAE543E8E9803007AB60B000198401CE1
:104B300001900298A0F580100290FF4802997844F5
:104B400000EBCB000991D0E9002328460B93129289
:104B5000FBF730FC00910A9028460B9B129A0999AA
:104B6000FBF787FB02460B460020F449FBF79AFC53
:104B7000CDE90C010B46024600990A98FBF720FC90
:104B80000690EF4888460027784402990068109004
:104B90004FF0005040EA610000EB8B4000F500212F
:104BA00002910B9B129A1098FBF704FC2A46099B72
:104BB000FBF703FC3A464346FBF702FC08911290D0
:104BC00038464146029B109AFBF7FAFB009B0A9A73
:104BD000FBF7F3FB089B129AFBF7ECFBDDE90C23D8
:104BE000FBF7EEFB0B91069A1290434610461946CE
:104BF000FBF7E6FB05460246D2480B460A91062122
:104C00007844FEF7BBFA0A9B2A46089102901046A8
:104C10001946FBF7D5FB089B029AFBF7D1FB05462B
:104C20000991434638461946069AFBF722FB0B9B2F
:104C3000129AFBF7C5FB2A46099BFBF71AFBCDE945
:104C400008013A46434610461946FBF7B9FB0A915C
:104C50000022BD4B0090FBF70CFBDDE90823FBF7BE
:104C600008FB0D463A46B84B3846FBF7A3FB0A9BB8
:104C7000009AFBF79FFBDDE90823FBF79EFBCDE9DC
:104C800008013A462B4610464146FBF799FB009136
:104C90000A90DDE908014346069AFBF791FB06906E
:104CA00088462B463A460B991298FBF789FB4346F8
:104CB000069AFBF7DEFA80460B4602460D910099F4
:104CC0000A98FBF7D6FA00200F460546009B0A9A81
:104CD000FBF770FB42460D9BFBF76FFB88460E907F
:104CE0004FF06042994B28463946FBF769FB029129
:104CF0000090974A954B41460E98FBF761FB804622
:104D00000391944A944B28463946FBF759FB424697
:104D1000039BFBF7AEFA914A7A4402EBCB03D3E94B
:104D20000023FBF7A6FA054607910198FBF729FC3B
:104D30000C9003912A46079B02990098FBF799FA79
:104D4000874A7A4402EBCB03D3E9002393460193CD
:104D5000FBF78FFA039B0C9AFBF78BFA0027884628
:104D60003846039B0C9AFBF725FB5A46019BFBF741
:104D700021FB029B009AFBF71DFB2A46079BFBF7D2
:104D80001CFB02460020069005986C4DAAF1010319
:104D9000184301D1734D069000200B460490304615
:104DA0002146FBF70DFB82468B46234630461946CB
:104DB000049AFBF7FFFA3A464346FBF701FB5246DB
:104DC0005B46FBF756FA06468A463A464346214674
:104DD0000498FBF7F5FA04460F4632465346FBF7B4
:104DE00048FA614A8B46914221DBABEB020353EA5E
:104DF000000210D122463B46FBF7DCFA80460391C5
:104E00005A4A5B4B30465146FBF733FA4246039B06
:104E1000FBF728FC27D20220FEF736FAFEF714FA39
:104E20000A46294614B062F31E01BDE8F08D514BCD
:104E30002BF000429A4216D34F4A0BEB020353EA7F
:104E4000000208D122463B46FBF7B4FA32465346ED
:104E5000FBF708FC07D80220FEF716FAFEF7FCF96C
:104E60000A462946DEE72BF000404449444A01EB5C
:104E700020514FF00008824223DA481C4FF4801181
:104E800021FA00F058443F4AC0F30A517A443E4B9D
:104E9000A1F2FF31CB4020EA0303C0F3130040F43A
:104EA000801CC1F1140012682CFA00F8BBF1000F4D
:104EB000B8BFC8F1000820463946FBF77BFA044624
:104EC0000F4622463B4630465146FBF7D2F94FF09B
:104ED000000B5A462D4B58460391FBF771FA00918F
:104EE0000A902B4A2B4B58460399FBF769FA049119
:104EF000029022463B4658460399FBF75BFA32463E
:104F00005346FBF75AFA244A244BFBF759FA049B01
:104F1000029AFBF7AEF907468A46009B0A9AFBF70E
:104F2000A8F904460E46009B0A9AFBF743FA3A4654
:104F30005346FBF742FA33E0061200000000F03F50
:104F400044120000741100000000084009C7EE3F41
:104F5000FD033ADCF5015B14E02F3EBE4C1000006F
:104F6000121000000000F0BF00009040FE822B6590
:104F70004715973C00CC904000346F3F01FCFFFF89
:104F80000000E03F400F0000FFFF0F00432EE63F10
:104F9000396CA80C615C20BEEF39FAFE422EE63F68
:104FA0000746224633460F9110461946FBF708FA8A
:104FB000834602462E488A460B4605217844FEF772
:104FC000DDF85A465346FBF7FBF922463346FBF71A
:104FD000F4F982468B463A46204631460F9BFBF752
:104FE000EFF93A460F9BFBF744F90F460A9000226F
:104FF0004FF0804350465946FBF7DCF9039100908F
:1050000052465B4620463146FBF7DAF9039B009A8D
:10501000FBF748FA3B460A9AFBF7CCF9224633469F
:10502000FBF7C8F90022134BFBF7C7F90E460446FD
:1050300001EB08510815002810DC42462046314695
:10504000FBF7FDFBFEF786F8042808BFFEF704F91E
:10505000424620463146FBF7F2FB044606980B46D3
:1050600014B022462946BDE8F04DFBF7A9B900006F
:10507000E80D00000000F03FF0B502460B460120AD
:10508000002108E000270446A4FB026C01FB02C5D6
:1050900000FB075130461C00A3F10103F2D1F0BD23
:1050A00010B507480078012804D120210548FCF7F5
:1050B000D9FB03E020210348FCF7D6FB10BD00001C
:1050C00044010020000C014010B554201149087023
:1050D00011480078FDF720F948200E4908700F4864
:1050E0000078FDF719F94D200A4908700C4800783E
:1050F000002805DD0A480078401E0949087004E0D0
:10510000084A09A10948FDF7FFFF0848FDF748F9DB
:1051100010BD0000A90000200600002007000020AC
:10512000090000200A000020257300003100002043
:105130002DE9F04106460F46FBF7C2FB04000D4681
:1051400018BF0120284320F00040C0F17F6000F12B
:10515000E040C00F0ED0301C18BF0120384320F0B3
:105160000040C0F17F6000F1E040C00F04BF0120AB
:10517000FEF78AF820462946BDE8F08170B504465E
:105180000026002501E0681CC5B2605D0028FAD148
:1051900009E06A1ED2B2154611193246731CDEB2FE
:1051A0001019FBF709FCB542F3DC70BD10B5FBF735
:1051B0001FFD20484079012801D1FEF7B9FC1D48A8
:1051C000407888B91B48807901280DD11948407969
:1051D00050B9FFF765FF002404E000201549085589
:1051E000601CC4B2072CF8DB1348C078012802D138
:1051F00000201149C87011480079012818D1FBF727
:10520000F7FC0F4800880D490978884210D10C48F6
:1052100040880A49497888420AD109488088074964
:105220008978884204D1012004494871FFF738FF8A
:1052300010BD000044010020380100203D01002085
:10524000300100200FB438B505A800900F48009A2F
:105250000499FDF76DFF002000900C48FAF7E5FF78
:1052600085B200240DE000BF40210948FDF744FE4F
:105270000028F9D00548015D0548FDF70AFF601CCC
:1052800084B2AC42EFDB38BC5DF814FB6C0A002042
:105290000048004010B586B00446012144F20400E5
:1052A000FDF774F92448FDF7D9FD4FF40070ADF80F
:1052B000140003208DF8160018208DF8170005A99A
:1052C0001E48FCF7FBF94FF48060ADF81400042091
:1052D0008DF8170005A91948FCF7F0F925208DF87D
:1052E000000003208DF801008DF8020001208DF8E8
:1052F00003006846FCF75EFE4FF4E13001900020A9
:10530000ADF80800ADF80A00ADF80C00ADF81000DB
:105310000C20ADF80E0001A90748FDF749FE012257
:1053200040F225510448FDF71EFE01210248FDF719
:1053300089FD06B010BD00000038014000080140A2
:105340001CB5044601210820FDF720F9012188043D
:10535000FDF7FCF82748FDF781FD4FF48060ADF8BC
:10536000000003208DF8020018208DF80300694624
:105370002148FCF7A3F94FF40060ADF80000482085
:105380008DF8030069461C48FCF798F91B48046037
:1053900000201A498880C880088188810C204881B3
:1053A0001448FDF705FE01211248FDF74BFD0122CF
:1053B00040F225510F48FDF7D6FD27208DF8040057
:1053C00002208DF8050003208DF8060001208DF8DD
:1053D000070001A8FCF7EEFD41F61F416320FDF731
:1053E00099FB00200649088000210648FDF7C8FB0C
:1053F0001CBD000000480040000C0140C40C00200F
:10540000D80000200014004010B5044600210A48CE
:10541000FDF718FD1CB10C200849488102E0082066
:105420000649488105490448FDF7C2FD01210248AB
:10543000FDF708FD10BD000000480040C40C00202E
:1054400070B505460C46082D2DD2DFE805F004099D
:105450000E13181D22274FF496602749086022E09A
:105460004FF41660244908601DE04FF4965022491D
:10547000086018E04FF416501F49086013E04FF41D
:1054800096401D4908600EE04FF416401A49086026
:1054900009E04FF461401849086004E04FF4E1303E
:1054A0001549086000BF00BF00211448FDF7CAFC81
:1054B00011480068124908600020C88014B988802B
:1054C00008810FE0012C05D120030D498880801050
:1054D000088107E0022C05D1E002094988804FF4D9
:1054E000C060088106490548FDF762FD01210348B7
:1054F000FDF7A8FC70BD0000DC0000200048004063
:10550000C40C00200000000000000000002F00007C
:1055100000000700070000147F147F1400242A7F76
:105520002A120062640813230036495522500000F5
:105530000503000000001C224100000041221C0065
:105540000014083E08140008083E0808000000A0E7
:1055500060000008080808080000606000000020E3
:1055600010080402003E5149453E0000427F4000C1
:10557000004261514946002141454B310018141247
:105580007F10002745454539003C4A494930000114
:105590007109050300364949493600064949291E63
:1055A00000003636000000005636000000081422C5
:1055B00041000014141414140000412214080002C5
:1055C0000151090600324959513E007C1211127CEA
:1055D000007F49494936003E41414122007F414117
:1055E000221C007F49494941007F09090901003E09
:1055F0004149497A007F0808087F0000417F410047
:10560000002040413F01007F08142241007F4040BC
:105610004040007F020C027F007F0408107F003EA4
:105620004141413E007F09090906003E4151215E8A
:10563000007F091929460046494949310001017F87
:105640000101003F4040403F001F2040201F003F1D
:105650004038403F006314081463000708700807CF
:1056600000615149454300007F4141000204081098
:105670002000000041417F000004020102040040BC
:10568000404040400000010204000020545454787F
:10569000007F48444438003844444420003844449F
:1056A000487F00385454541800087E09010200183D
:1056B000A4A4A47C007F080404780000447D40007A
:1056C000004080847D00007F102844000000417F5E
:1056D0004000007C04180478007C0804047800383A
:1056E0004444443800FC242424180018242418FCC2
:1056F000007C0804040800485454542000043F442B
:105700004020003C4040207C001C2040201C003CED
:105710004030403C004428102844001CA0A0A07C3D
:10572000004464544C4400083641000000007F00EF
:105730000000004136080000100808101008007F23
:105740007D55797F0000000000000000000000008F
:1057500000000000000000F800000000000000331E
:105760003000000000100C06100C060000000000C5
:105770000000000040C07840C0784000043F0404AE
:105780003F040400007088FC08300000001820FF6F
:10579000211E0000F008F000E018000000211C03AA
:1057A0001E211E0000F00888700000001E21232426
:1057B0001927211010160E00000000000000000044
:1057C00000000000000000E01804020000000007D4
:1057D0001820400000020418E000000000402018DB
:1057E00007000000404080F0804040000202010FAE
:1057F00001020200000000F0000000000101011F92
:1058000001010100000000000000000080B07000F5
:105810000000000000000000000000000001010185
:105820000101010100000000000000000030300014
:1058300000000000000000008060180400601806EE
:105840000100000000E010080810E000000F102028
:1058500020100F00001010F8000000000020203F72
:1058600020200000007008080888700000302824FC
:10587000222130000030088888483000001820209D
:1058800020110E000000C02010F8000000070424C2
:10589000243F240000F80888880808000019212007
:1058A00020110E0000E0108888180000000F112061
:1058B00020110E0000380808C83808000000003F1A
:1058C000000000000070880808887000001C222179
:1058D00021221C0000E010080810E0000000312226
:1058E00022110F00000000C0C000000000000030C6
:1058F0003000000000000080000000000000806018
:105900000000000000008040201008000001020498
:10591000081020004040404040404000040404047F
:10592000040404000008102040800000002010083B
:1059300004020100007048080808F0000000003070
:1059400036010000C030C828E810E00007182724FE
:1059500023140B000000C038E0000000203C2302AC
:105960000227382008F8888888700000203F20200F
:1059700020110E00C0300808080838000718202041
:105980002010080008F808080810E000203F202038
:1059900020100F0008F88888E8081000203F202019
:1059A0002320180008F88888E8081000203F20000D
:1059B00003000000C0300808083800000718202045
:1059C000221E020008F808000008F808203F210104
:1059D00001213F20000808F8080800000020203FAF
:1059E0002020000000000808F8080800C08080801F
:1059F0007F00000008F888C028180800203F200118
:105A00002638200008F8080000000000203F202071
:105A10002020300008F8F800F8F80800203F003F88
:105A2000003F200008F830C00008F808203F2000A0
:105A300007183F00E01008080810E0000F102020B1
:105A400020100F0008F808080808F000203F210186
:105A500001010000E01008080810E0000F182424DD
:105A600038504F0008F8888888887000203F200050
:105A7000030C302000708808080838000038202106
:105A800021221C00180808F8080818000000203F10
:105A90002000000008F808000008F808001F202077
:105AA00020201F000878880000C838080000073848
:105AB0000E010000F80800F80008F800033C070099
:105AC000073C0300081868808068180820302C0301
:105AD000032C30200838C800C83808000000203FD8
